{
  "_format": "hh-sol-artifact-1",
  "contractName": "NFT",
  "sourceName": "contracts/NFT.sol",
  "abi": [
    {
      "inputs": [
        {
          "internalType": "string",
          "name": "name",
          "type": "string"
        },
        {
          "internalType": "string",
          "name": "symbol",
          "type": "string"
        }
      ],
      "stateMutability": "nonpayable",
      "type": "constructor"
    },
    {
      "inputs": [
        {
          "internalType": "address",
          "name": "sender",
          "type": "address"
        },
        {
          "internalType": "uint256",
          "name": "tokenId",
          "type": "uint256"
        },
        {
          "internalType": "address",
          "name": "owner",
          "type": "address"
        }
      ],
      "name": "ERC721IncorrectOwner",
      "type": "error"
    },
    {
      "inputs": [
        {
          "internalType": "address",
          "name": "operator",
          "type": "address"
        },
        {
          "internalType": "uint256",
          "name": "tokenId",
          "type": "uint256"
        }
      ],
      "name": "ERC721InsufficientApproval",
      "type": "error"
    },
    {
      "inputs": [
        {
          "internalType": "address",
          "name": "approver",
          "type": "address"
        }
      ],
      "name": "ERC721InvalidApprover",
      "type": "error"
    },
    {
      "inputs": [
        {
          "internalType": "address",
          "name": "operator",
          "type": "address"
        }
      ],
      "name": "ERC721InvalidOperator",
      "type": "error"
    },
    {
      "inputs": [
        {
          "internalType": "address",
          "name": "owner",
          "type": "address"
        }
      ],
      "name": "ERC721InvalidOwner",
      "type": "error"
    },
    {
      "inputs": [
        {
          "internalType": "address",
          "name": "receiver",
          "type": "address"
        }
      ],
      "name": "ERC721InvalidReceiver",
      "type": "error"
    },
    {
      "inputs": [
        {
          "internalType": "address",
          "name": "sender",
          "type": "address"
        }
      ],
      "name": "ERC721InvalidSender",
      "type": "error"
    },
    {
      "inputs": [
        {
          "internalType": "uint256",
          "name": "tokenId",
          "type": "uint256"
        }
      ],
      "name": "ERC721NonexistentToken",
      "type": "error"
    },
    {
      "anonymous": false,
      "inputs": [
        {
          "indexed": true,
          "internalType": "address",
          "name": "owner",
          "type": "address"
        },
        {
          "indexed": true,
          "internalType": "address",
          "name": "approved",
          "type": "address"
        },
        {
          "indexed": true,
          "internalType": "uint256",
          "name": "tokenId",
          "type": "uint256"
        }
      ],
      "name": "Approval",
      "type": "event"
    },
    {
      "anonymous": false,
      "inputs": [
        {
          "indexed": true,
          "internalType": "address",
          "name": "owner",
          "type": "address"
        },
        {
          "indexed": true,
          "internalType": "address",
          "name": "operator",
          "type": "address"
        },
        {
          "indexed": false,
          "internalType": "bool",
          "name": "approved",
          "type": "bool"
        }
      ],
      "name": "ApprovalForAll",
      "type": "event"
    },
    {
      "anonymous": false,
      "inputs": [
        {
          "indexed": false,
          "internalType": "uint256",
          "name": "tokenId",
          "type": "uint256"
        },
        {
          "indexed": false,
          "internalType": "string",
          "name": "name",
          "type": "string"
        },
        {
          "indexed": false,
          "internalType": "string",
          "name": "symbol",
          "type": "string"
        }
      ],
      "name": "NFTAdded",
      "type": "event"
    },
    {
      "anonymous": false,
      "inputs": [
        {
          "indexed": true,
          "internalType": "address",
          "name": "from",
          "type": "address"
        },
        {
          "indexed": true,
          "internalType": "address",
          "name": "to",
          "type": "address"
        },
        {
          "indexed": true,
          "internalType": "uint256",
          "name": "tokenId",
          "type": "uint256"
        }
      ],
      "name": "Transfer",
      "type": "event"
    },
    {
      "inputs": [
        {
          "internalType": "address",
          "name": "to",
          "type": "address"
        },
        {
          "internalType": "uint256",
          "name": "tokenId",
          "type": "uint256"
        }
      ],
      "name": "approve",
      "outputs": [],
      "stateMutability": "nonpayable",
      "type": "function"
    },
    {
      "inputs": [
        {
          "internalType": "address",
          "name": "owner",
          "type": "address"
        }
      ],
      "name": "balanceOf",
      "outputs": [
        {
          "internalType": "uint256",
          "name": "",
          "type": "uint256"
        }
      ],
      "stateMutability": "view",
      "type": "function"
    },
    {
      "inputs": [
        {
          "internalType": "uint256",
          "name": "tokenId",
          "type": "uint256"
        }
      ],
      "name": "getApproved",
      "outputs": [
        {
          "internalType": "address",
          "name": "",
          "type": "address"
        }
      ],
      "stateMutability": "view",
      "type": "function"
    },
    {
      "inputs": [],
      "name": "getNFTs",
      "outputs": [
        {
          "internalType": "string[]",
          "name": "names",
          "type": "string[]"
        },
        {
          "internalType": "string[]",
          "name": "symbols",
          "type": "string[]"
        }
      ],
      "stateMutability": "view",
      "type": "function"
    },
    {
      "inputs": [
        {
          "internalType": "address",
          "name": "owner",
          "type": "address"
        },
        {
          "internalType": "address",
          "name": "operator",
          "type": "address"
        }
      ],
      "name": "isApprovedForAll",
      "outputs": [
        {
          "internalType": "bool",
          "name": "",
          "type": "bool"
        }
      ],
      "stateMutability": "view",
      "type": "function"
    },
    {
      "inputs": [
        {
          "internalType": "address",
          "name": "to",
          "type": "address"
        },
        {
          "internalType": "string",
          "name": "name",
          "type": "string"
        },
        {
          "internalType": "string",
          "name": "symbol",
          "type": "string"
        }
      ],
      "name": "mint",
      "outputs": [
        {
          "internalType": "uint256",
          "name": "",
          "type": "uint256"
        }
      ],
      "stateMutability": "nonpayable",
      "type": "function"
    },
    {
      "inputs": [],
      "name": "name",
      "outputs": [
        {
          "internalType": "string",
          "name": "",
          "type": "string"
        }
      ],
      "stateMutability": "view",
      "type": "function"
    },
    {
      "inputs": [
        {
          "internalType": "uint256",
          "name": "",
          "type": "uint256"
        }
      ],
      "name": "nfts",
      "outputs": [
        {
          "internalType": "string",
          "name": "name",
          "type": "string"
        },
        {
          "internalType": "string",
          "name": "symbol",
          "type": "string"
        },
        {
          "internalType": "uint256",
          "name": "tokenId",
          "type": "uint256"
        }
      ],
      "stateMutability": "view",
      "type": "function"
    },
    {
      "inputs": [
        {
          "internalType": "uint256",
          "name": "tokenId",
          "type": "uint256"
        }
      ],
      "name": "ownerOf",
      "outputs": [
        {
          "internalType": "address",
          "name": "",
          "type": "address"
        }
      ],
      "stateMutability": "view",
      "type": "function"
    },
    {
      "inputs": [
        {
          "internalType": "address",
          "name": "from",
          "type": "address"
        },
        {
          "internalType": "address",
          "name": "to",
          "type": "address"
        },
        {
          "internalType": "uint256",
          "name": "tokenId",
          "type": "uint256"
        }
      ],
      "name": "safeTransferFrom",
      "outputs": [],
      "stateMutability": "nonpayable",
      "type": "function"
    },
    {
      "inputs": [
        {
          "internalType": "address",
          "name": "from",
          "type": "address"
        },
        {
          "internalType": "address",
          "name": "to",
          "type": "address"
        },
        {
          "internalType": "uint256",
          "name": "tokenId",
          "type": "uint256"
        },
        {
          "internalType": "bytes",
          "name": "data",
          "type": "bytes"
        }
      ],
      "name": "safeTransferFrom",
      "outputs": [],
      "stateMutability": "nonpayable",
      "type": "function"
    },
    {
      "inputs": [
        {
          "internalType": "address",
          "name": "operator",
          "type": "address"
        },
        {
          "internalType": "bool",
          "name": "approved",
          "type": "bool"
        }
      ],
      "name": "setApprovalForAll",
      "outputs": [],
      "stateMutability": "nonpayable",
      "type": "function"
    },
    {
      "inputs": [
        {
          "internalType": "bytes4",
          "name": "interfaceId",
          "type": "bytes4"
        }
      ],
      "name": "supportsInterface",
      "outputs": [
        {
          "internalType": "bool",
          "name": "",
          "type": "bool"
        }
      ],
      "stateMutability": "view",
      "type": "function"
    },
    {
      "inputs": [],
      "name": "symbol",
      "outputs": [
        {
          "internalType": "string",
          "name": "",
          "type": "string"
        }
      ],
      "stateMutability": "view",
      "type": "function"
    },
    {
      "inputs": [
        {
          "internalType": "uint256",
          "name": "tokenId",
          "type": "uint256"
        }
      ],
      "name": "tokenURI",
      "outputs": [
        {
          "internalType": "string",
          "name": "",
          "type": "string"
        }
      ],
      "stateMutability": "view",
      "type": "function"
    },
    {
      "inputs": [
        {
          "internalType": "address",
          "name": "from",
          "type": "address"
        },
        {
          "internalType": "address",
          "name": "to",
          "type": "address"
        },
        {
          "internalType": "uint256",
          "name": "tokenId",
          "type": "uint256"
        }
      ],
      "name": "transferFrom",
      "outputs": [],
      "stateMutability": "nonpayable",
      "type": "function"
    }
  ],
  "bytecode": "0x60806040523480156200001157600080fd5b5060405162002e2838038062002e288339818101604052810190620000379190620001fa565b818181600090816200004a9190620004ca565b5080600190816200005c9190620004ca565b5050505050620005b1565b6000604051905090565b600080fd5b600080fd5b600080fd5b600080fd5b6000601f19601f8301169050919050565b7f4e487b7100000000000000000000000000000000000000000000000000000000600052604160045260246000fd5b620000d08262000085565b810181811067ffffffffffffffff82111715620000f257620000f162000096565b5b80604052505050565b60006200010762000067565b9050620001158282620000c5565b919050565b600067ffffffffffffffff82111562000138576200013762000096565b5b620001438262000085565b9050602081019050919050565b60005b838110156200017057808201518184015260208101905062000153565b60008484015250505050565b6000620001936200018d846200011a565b620000fb565b905082815260208101848484011115620001b257620001b162000080565b5b620001bf84828562000150565b509392505050565b600082601f830112620001df57620001de6200007b565b5b8151620001f18482602086016200017c565b91505092915050565b6000806040838503121562000214576200021362000071565b5b600083015167ffffffffffffffff81111562000235576200023462000076565b5b6200024385828601620001c7565b925050602083015167ffffffffffffffff81111562000267576200026662000076565b5b6200027585828601620001c7565b9150509250929050565b600081519050919050565b7f4e487b7100000000000000000000000000000000000000000000000000000000600052602260045260246000fd5b60006002820490506001821680620002d257607f821691505b602082108103620002e857620002e76200028a565b5b50919050565b60008190508160005260206000209050919050565b60006020601f8301049050919050565b600082821b905092915050565b600060088302620003527fffffffffffffffffffffffffffffffffffffffffffffffffffffffffffffffff8262000313565b6200035e868362000313565b95508019841693508086168417925050509392505050565b6000819050919050565b6000819050919050565b6000620003ab620003a56200039f8462000376565b62000380565b62000376565b9050919050565b6000819050919050565b620003c7836200038a565b620003df620003d682620003b2565b84845462000320565b825550505050565b600090565b620003f6620003e7565b62000403818484620003bc565b505050565b5b818110156200042b576200041f600082620003ec565b60018101905062000409565b5050565b601f8211156200047a576200044481620002ee565b6200044f8462000303565b810160208510156200045f578190505b620004776200046e8562000303565b83018262000408565b50505b505050565b600082821c905092915050565b60006200049f600019846008026200047f565b1980831691505092915050565b6000620004ba83836200048c565b9150826002028217905092915050565b620004d5826200027f565b67ffffffffffffffff811115620004f157620004f062000096565b5b620004fd8254620002b9565b6200050a8282856200042f565b600060209050601f8311600181146200054257600084156200052d578287015190505b620005398582620004ac565b865550620005a9565b601f1984166200055286620002ee565b60005b828110156200057c5784890151825560018201915060208501945060208101905062000555565b868310156200059c578489015162000598601f8916826200048c565b8355505b6001600288020188555050505b505050505050565b61286780620005c16000396000f3fe608060405234801561001057600080fd5b50600436106101005760003560e01c80636352211e11610097578063a22cb46511610066578063a22cb465146102d6578063b88d4fde146102f2578063c87b56dd1461030e578063e985e9c51461033e57610100565b80636352211e1461022857806370a082311461025857806395d89b411461028857806399071190146102a657610100565b8063227212f2116100d3578063227212f21461019f57806323b872dd146101be578063265aa621146101da57806342842e0e1461020c57610100565b806301ffc9a71461010557806306fdde0314610135578063081812fc14610153578063095ea7b314610183575b600080fd5b61011f600480360381019061011a9190611b0b565b61036e565b60405161012c9190611b53565b60405180910390f35b61013d610450565b60405161014a9190611bfe565b60405180910390f35b61016d60048036038101906101689190611c56565b6104e2565b60405161017a9190611cc4565b60405180910390f35b61019d60048036038101906101989190611d0b565b6104fe565b005b6101a7610514565b6040516101b5929190611e57565b60405180910390f35b6101d860048036038101906101d39190611e8e565b61077b565b005b6101f460048036038101906101ef9190611c56565b61078b565b60405161020393929190611ef0565b60405180910390f35b61022660048036038101906102219190611e8e565b6108d5565b005b610242600480360381019061023d9190611c56565b6108f5565b60405161024f9190611cc4565b60405180910390f35b610272600480360381019061026d9190611f35565b610907565b60405161027f9190611f62565b60405180910390f35b6102906109c1565b60405161029d9190611bfe565b60405180910390f35b6102c060048036038101906102bb91906120b2565b610a53565b6040516102cd9190611f62565b60405180910390f35b6102f060048036038101906102eb9190612169565b610b2c565b005b61030c6004803603810190610307919061224a565b610b42565b005b61032860048036038101906103239190611c56565b610b5f565b6040516103359190611bfe565b60405180910390f35b610358600480360381019061035391906122cd565b610bc8565b6040516103659190611b53565b60405180910390f35b60007f80ac58cd000000000000000000000000000000000000000000000000000000007bffffffffffffffffffffffffffffffffffffffffffffffffffffffff1916827bffffffffffffffffffffffffffffffffffffffffffffffffffffffff1916148061043957507f5b5e139f000000000000000000000000000000000000000000000000000000007bffffffffffffffffffffffffffffffffffffffffffffffffffffffff1916827bffffffffffffffffffffffffffffffffffffffffffffffffffffffff1916145b80610449575061044882610c5c565b5b9050919050565b60606000805461045f9061233c565b80601f016020809104026020016040519081016040528092919081815260200182805461048b9061233c565b80156104d85780601f106104ad576101008083540402835291602001916104d8565b820191906000526020600020905b8154815290600101906020018083116104bb57829003601f168201915b5050505050905090565b60006104ed82610cc6565b506104f782610d4e565b9050919050565b610510828261050b610d8b565b610d93565b5050565b60608060068054905067ffffffffffffffff81111561053657610535611f87565b5b60405190808252806020026020018201604052801561056957816020015b60608152602001906001900390816105545790505b50915060068054905067ffffffffffffffff81111561058b5761058a611f87565b5b6040519080825280602002602001820160405280156105be57816020015b60608152602001906001900390816105a95790505b50905060005b60068054905081101561077657600681815481106105e5576105e461236d565b5b906000526020600020906003020160000180546106019061233c565b80601f016020809104026020016040519081016040528092919081815260200182805461062d9061233c565b801561067a5780601f1061064f5761010080835404028352916020019161067a565b820191906000526020600020905b81548152906001019060200180831161065d57829003601f168201915b50505050508382815181106106925761069161236d565b5b6020026020010181905250600681815481106106b1576106b061236d565b5b906000526020600020906003020160010180546106cd9061233c565b80601f01602080910402602001604051908101604052809291908181526020018280546106f99061233c565b80156107465780601f1061071b57610100808354040283529160200191610746565b820191906000526020600020905b81548152906001019060200180831161072957829003601f168201915b505050505082828151811061075e5761075d61236d565b5b602002602001018190525080806001019150506105c4565b509091565b610786838383610da5565b505050565b6006818154811061079b57600080fd5b90600052602060002090600302016000915090508060000180546107be9061233c565b80601f01602080910402602001604051908101604052809291908181526020018280546107ea9061233c565b80156108375780601f1061080c57610100808354040283529160200191610837565b820191906000526020600020905b81548152906001019060200180831161081a57829003601f168201915b50505050509080600101805461084c9061233c565b80601f01602080910402602001604051908101604052809291908181526020018280546108789061233c565b80156108c55780601f1061089a576101008083540402835291602001916108c5565b820191906000526020600020905b8154815290600101906020018083116108a857829003601f168201915b5050505050908060020154905083565b6108f083838360405180602001604052806000815250610b42565b505050565b600061090082610cc6565b9050919050565b60008073ffffffffffffffffffffffffffffffffffffffff168273ffffffffffffffffffffffffffffffffffffffff160361097a5760006040517f89c62b640000000000000000000000000000000000000000000000000000000081526004016109719190611cc4565b60405180910390fd5b600360008373ffffffffffffffffffffffffffffffffffffffff1673ffffffffffffffffffffffffffffffffffffffff168152602001908152602001600020549050919050565b6060600180546109d09061233c565b80601f01602080910402602001604051908101604052809291908181526020018280546109fc9061233c565b8015610a495780601f10610a1e57610100808354040283529160200191610a49565b820191906000526020600020905b815481529060010190602001808311610a2c57829003601f168201915b5050505050905090565b6000806006805490509050610a688582610ea7565b600660405180606001604052808681526020018581526020018381525090806001815401808255809150506001900390600052602060002090600302016000909190919091506000820151816000019081610ac39190612548565b506020820151816001019081610ad99190612548565b506040820151816002015550507ff8b9852ac2523ccf8d5fe9f2da717a856be1fc953e11a26d05c9ebfb88f6b990818585604051610b199392919061261a565b60405180910390a1809150509392505050565b610b3e610b37610d8b565b8383610fa0565b5050565b610b4d84848461077b565b610b598484848461110f565b50505050565b6060610b6a82610cc6565b506000610b756112c6565b90506000815111610b955760405180602001604052806000815250610bc0565b80610b9f846112dd565b604051602001610bb092919061269b565b6040516020818303038152906040525b915050919050565b6000600560008473ffffffffffffffffffffffffffffffffffffffff1673ffffffffffffffffffffffffffffffffffffffff16815260200190815260200160002060008373ffffffffffffffffffffffffffffffffffffffff1673ffffffffffffffffffffffffffffffffffffffff16815260200190815260200160002060009054906101000a900460ff16905092915050565b60007f01ffc9a7000000000000000000000000000000000000000000000000000000007bffffffffffffffffffffffffffffffffffffffffffffffffffffffff1916827bffffffffffffffffffffffffffffffffffffffffffffffffffffffff1916149050919050565b600080610cd2836113ab565b9050600073ffffffffffffffffffffffffffffffffffffffff168173ffffffffffffffffffffffffffffffffffffffff1603610d4557826040517f7e273289000000000000000000000000000000000000000000000000000000008152600401610d3c9190611f62565b60405180910390fd5b80915050919050565b60006004600083815260200190815260200160002060009054906101000a900473ffffffffffffffffffffffffffffffffffffffff169050919050565b600033905090565b610da083838360016113e8565b505050565b600073ffffffffffffffffffffffffffffffffffffffff168273ffffffffffffffffffffffffffffffffffffffff1603610e175760006040517f64a0ae92000000000000000000000000000000000000000000000000000000008152600401610e0e9190611cc4565b60405180910390fd5b6000610e2b8383610e26610d8b565b6115ad565b90508373ffffffffffffffffffffffffffffffffffffffff168173ffffffffffffffffffffffffffffffffffffffff1614610ea1578382826040517f64283d7b000000000000000000000000000000000000000000000000000000008152600401610e98939291906126bf565b60405180910390fd5b50505050565b600073ffffffffffffffffffffffffffffffffffffffff168273ffffffffffffffffffffffffffffffffffffffff1603610f195760006040517f64a0ae92000000000000000000000000000000000000000000000000000000008152600401610f109190611cc4565b60405180910390fd5b6000610f27838360006115ad565b9050600073ffffffffffffffffffffffffffffffffffffffff168173ffffffffffffffffffffffffffffffffffffffff1614610f9b5760006040517f73c6ac6e000000000000000000000000000000000000000000000000000000008152600401610f929190611cc4565b60405180910390fd5b505050565b600073ffffffffffffffffffffffffffffffffffffffff168273ffffffffffffffffffffffffffffffffffffffff160361101157816040517f5b08ba180000000000000000000000000000000000000000000000000000000081526004016110089190611cc4565b60405180910390fd5b80600560008573ffffffffffffffffffffffffffffffffffffffff1673ffffffffffffffffffffffffffffffffffffffff16815260200190815260200160002060008473ffffffffffffffffffffffffffffffffffffffff1673ffffffffffffffffffffffffffffffffffffffff16815260200190815260200160002060006101000a81548160ff0219169083151502179055508173ffffffffffffffffffffffffffffffffffffffff168373ffffffffffffffffffffffffffffffffffffffff167f17307eab39ab6107e8899845ad3d59bd9653f200f220920489ca2b5937696c31836040516111029190611b53565b60405180910390a3505050565b60008373ffffffffffffffffffffffffffffffffffffffff163b11156112c0578273ffffffffffffffffffffffffffffffffffffffff1663150b7a02611153610d8b565b8685856040518563ffffffff1660e01b8152600401611175949392919061274b565b6020604051808303816000875af19250505080156111b157506040513d601f19601f820116820180604052508101906111ae91906127ac565b60015b611235573d80600081146111e1576040519150601f19603f3d011682016040523d82523d6000602084013e6111e6565b606091505b50600081510361122d57836040517f64a0ae920000000000000000000000000000000000000000000000000000000081526004016112249190611cc4565b60405180910390fd5b805181602001fd5b63150b7a0260e01b7bffffffffffffffffffffffffffffffffffffffffffffffffffffffff1916817bffffffffffffffffffffffffffffffffffffffffffffffffffffffff1916146112be57836040517f64a0ae920000000000000000000000000000000000000000000000000000000081526004016112b59190611cc4565b60405180910390fd5b505b50505050565b606060405180602001604052806000815250905090565b6060600060016112ec846117c7565b01905060008167ffffffffffffffff81111561130b5761130a611f87565b5b6040519080825280601f01601f19166020018201604052801561133d5781602001600182028036833780820191505090505b509050600082602001820190505b6001156113a0578080600190039150507f3031323334353637383961626364656600000000000000000000000000000000600a86061a8153600a8581611394576113936127d9565b5b0494506000850361134b575b819350505050919050565b60006002600083815260200190815260200160002060009054906101000a900473ffffffffffffffffffffffffffffffffffffffff169050919050565b80806114215750600073ffffffffffffffffffffffffffffffffffffffff168273ffffffffffffffffffffffffffffffffffffffff1614155b1561155557600061143184610cc6565b9050600073ffffffffffffffffffffffffffffffffffffffff168373ffffffffffffffffffffffffffffffffffffffff161415801561149c57508273ffffffffffffffffffffffffffffffffffffffff168173ffffffffffffffffffffffffffffffffffffffff1614155b80156114af57506114ad8184610bc8565b155b156114f157826040517fa9fbf51f0000000000000000000000000000000000000000000000000000000081526004016114e89190611cc4565b60405180910390fd5b811561155357838573ffffffffffffffffffffffffffffffffffffffff168273ffffffffffffffffffffffffffffffffffffffff167f8c5be1e5ebec7d5bd14f71427d1e84f3dd0314c0f7b2291e5b200ac8c7c3b92560405160405180910390a45b505b836004600085815260200190815260200160002060006101000a81548173ffffffffffffffffffffffffffffffffffffffff021916908373ffffffffffffffffffffffffffffffffffffffff16021790555050505050565b6000806115b9846113ab565b9050600073ffffffffffffffffffffffffffffffffffffffff168373ffffffffffffffffffffffffffffffffffffffff16146115fb576115fa81848661191a565b5b600073ffffffffffffffffffffffffffffffffffffffff168173ffffffffffffffffffffffffffffffffffffffff161461168c5761163d6000856000806113e8565b6001600360008373ffffffffffffffffffffffffffffffffffffffff1673ffffffffffffffffffffffffffffffffffffffff168152602001908152602001600020600082825403925050819055505b600073ffffffffffffffffffffffffffffffffffffffff168573ffffffffffffffffffffffffffffffffffffffff161461170f576001600360008773ffffffffffffffffffffffffffffffffffffffff1673ffffffffffffffffffffffffffffffffffffffff168152602001908152602001600020600082825401925050819055505b846002600086815260200190815260200160002060006101000a81548173ffffffffffffffffffffffffffffffffffffffff021916908373ffffffffffffffffffffffffffffffffffffffff160217905550838573ffffffffffffffffffffffffffffffffffffffff168273ffffffffffffffffffffffffffffffffffffffff167fddf252ad1be2c89b69c2b068fc378daa952ba7f163c4a11628f55a4df523b3ef60405160405180910390a4809150509392505050565b600080600090507a184f03e93ff9f4daa797ed6e38ed64bf6a1f0100000000000000008310611825577a184f03e93ff9f4daa797ed6e38ed64bf6a1f010000000000000000838161181b5761181a6127d9565b5b0492506040810190505b6d04ee2d6d415b85acef81000000008310611862576d04ee2d6d415b85acef81000000008381611858576118576127d9565b5b0492506020810190505b662386f26fc10000831061189157662386f26fc100008381611887576118866127d9565b5b0492506010810190505b6305f5e10083106118ba576305f5e10083816118b0576118af6127d9565b5b0492506008810190505b61271083106118df5761271083816118d5576118d46127d9565b5b0492506004810190505b6064831061190257606483816118f8576118f76127d9565b5b0492506002810190505b600a8310611911576001810190505b80915050919050565b6119258383836119de565b6119d957600073ffffffffffffffffffffffffffffffffffffffff168373ffffffffffffffffffffffffffffffffffffffff160361199a57806040517f7e2732890000000000000000000000000000000000000000000000000000000081526004016119919190611f62565b60405180910390fd5b81816040517f177e802f0000000000000000000000000000000000000000000000000000000081526004016119d0929190612808565b60405180910390fd5b505050565b60008073ffffffffffffffffffffffffffffffffffffffff168373ffffffffffffffffffffffffffffffffffffffff1614158015611a9657508273ffffffffffffffffffffffffffffffffffffffff168473ffffffffffffffffffffffffffffffffffffffff161480611a575750611a568484610bc8565b5b80611a9557508273ffffffffffffffffffffffffffffffffffffffff16611a7d83610d4e565b73ffffffffffffffffffffffffffffffffffffffff16145b5b90509392505050565b6000604051905090565b600080fd5b600080fd5b60007fffffffff0000000000000000000000000000000000000000000000000000000082169050919050565b611ae881611ab3565b8114611af357600080fd5b50565b600081359050611b0581611adf565b92915050565b600060208284031215611b2157611b20611aa9565b5b6000611b2f84828501611af6565b91505092915050565b60008115159050919050565b611b4d81611b38565b82525050565b6000602082019050611b686000830184611b44565b92915050565b600081519050919050565b600082825260208201905092915050565b60005b83811015611ba8578082015181840152602081019050611b8d565b60008484015250505050565b6000601f19601f8301169050919050565b6000611bd082611b6e565b611bda8185611b79565b9350611bea818560208601611b8a565b611bf381611bb4565b840191505092915050565b60006020820190508181036000830152611c188184611bc5565b905092915050565b6000819050919050565b611c3381611c20565b8114611c3e57600080fd5b50565b600081359050611c5081611c2a565b92915050565b600060208284031215611c6c57611c6b611aa9565b5b6000611c7a84828501611c41565b91505092915050565b600073ffffffffffffffffffffffffffffffffffffffff82169050919050565b6000611cae82611c83565b9050919050565b611cbe81611ca3565b82525050565b6000602082019050611cd96000830184611cb5565b92915050565b611ce881611ca3565b8114611cf357600080fd5b50565b600081359050611d0581611cdf565b92915050565b60008060408385031215611d2257611d21611aa9565b5b6000611d3085828601611cf6565b9250506020611d4185828601611c41565b9150509250929050565b600081519050919050565b600082825260208201905092915050565b6000819050602082019050919050565b600082825260208201905092915050565b6000611d9382611b6e565b611d9d8185611d77565b9350611dad818560208601611b8a565b611db681611bb4565b840191505092915050565b6000611dcd8383611d88565b905092915050565b6000602082019050919050565b6000611ded82611d4b565b611df78185611d56565b935083602082028501611e0985611d67565b8060005b85811015611e455784840389528151611e268582611dc1565b9450611e3183611dd5565b925060208a01995050600181019050611e0d565b50829750879550505050505092915050565b60006040820190508181036000830152611e718185611de2565b90508181036020830152611e858184611de2565b90509392505050565b600080600060608486031215611ea757611ea6611aa9565b5b6000611eb586828701611cf6565b9350506020611ec686828701611cf6565b9250506040611ed786828701611c41565b9150509250925092565b611eea81611c20565b82525050565b60006060820190508181036000830152611f0a8186611bc5565b90508181036020830152611f1e8185611bc5565b9050611f2d6040830184611ee1565b949350505050565b600060208284031215611f4b57611f4a611aa9565b5b6000611f5984828501611cf6565b91505092915050565b6000602082019050611f776000830184611ee1565b92915050565b600080fd5b600080fd5b7f4e487b7100000000000000000000000000000000000000000000000000000000600052604160045260246000fd5b611fbf82611bb4565b810181811067ffffffffffffffff82111715611fde57611fdd611f87565b5b80604052505050565b6000611ff1611a9f565b9050611ffd8282611fb6565b919050565b600067ffffffffffffffff82111561201d5761201c611f87565b5b61202682611bb4565b9050602081019050919050565b82818337600083830152505050565b600061205561205084612002565b611fe7565b90508281526020810184848401111561207157612070611f82565b5b61207c848285612033565b509392505050565b600082601f83011261209957612098611f7d565b5b81356120a9848260208601612042565b91505092915050565b6000806000606084860312156120cb576120ca611aa9565b5b60006120d986828701611cf6565b935050602084013567ffffffffffffffff8111156120fa576120f9611aae565b5b61210686828701612084565b925050604084013567ffffffffffffffff81111561212757612126611aae565b5b61213386828701612084565b9150509250925092565b61214681611b38565b811461215157600080fd5b50565b6000813590506121638161213d565b92915050565b600080604083850312156121805761217f611aa9565b5b600061218e85828601611cf6565b925050602061219f85828601612154565b9150509250929050565b600067ffffffffffffffff8211156121c4576121c3611f87565b5b6121cd82611bb4565b9050602081019050919050565b60006121ed6121e8846121a9565b611fe7565b90508281526020810184848401111561220957612208611f82565b5b612214848285612033565b509392505050565b600082601f83011261223157612230611f7d565b5b81356122418482602086016121da565b91505092915050565b6000806000806080858703121561226457612263611aa9565b5b600061227287828801611cf6565b945050602061228387828801611cf6565b935050604061229487828801611c41565b925050606085013567ffffffffffffffff8111156122b5576122b4611aae565b5b6122c18782880161221c565b91505092959194509250565b600080604083850312156122e4576122e3611aa9565b5b60006122f285828601611cf6565b925050602061230385828601611cf6565b9150509250929050565b7f4e487b7100000000000000000000000000000000000000000000000000000000600052602260045260246000fd5b6000600282049050600182168061235457607f821691505b6020821081036123675761236661230d565b5b50919050565b7f4e487b7100000000000000000000000000000000000000000000000000000000600052603260045260246000fd5b60008190508160005260206000209050919050565b60006020601f8301049050919050565b600082821b905092915050565b6000600883026123fe7fffffffffffffffffffffffffffffffffffffffffffffffffffffffffffffffff826123c1565b61240886836123c1565b95508019841693508086168417925050509392505050565b6000819050919050565b600061244561244061243b84611c20565b612420565b611c20565b9050919050565b6000819050919050565b61245f8361242a565b61247361246b8261244c565b8484546123ce565b825550505050565b600090565b61248861247b565b612493818484612456565b505050565b5b818110156124b7576124ac600082612480565b600181019050612499565b5050565b601f8211156124fc576124cd8161239c565b6124d6846123b1565b810160208510156124e5578190505b6124f96124f1856123b1565b830182612498565b50505b505050565b600082821c905092915050565b600061251f60001984600802612501565b1980831691505092915050565b6000612538838361250e565b9150826002028217905092915050565b61255182611b6e565b67ffffffffffffffff81111561256a57612569611f87565b5b612574825461233c565b61257f8282856124bb565b600060209050601f8311600181146125b257600084156125a0578287015190505b6125aa858261252c565b865550612612565b601f1984166125c08661239c565b60005b828110156125e8578489015182556001820191506020850194506020810190506125c3565b868310156126055784890151612601601f89168261250e565b8355505b6001600288020188555050505b505050505050565b600060608201905061262f6000830186611ee1565b81810360208301526126418185611bc5565b905081810360408301526126558184611bc5565b9050949350505050565b600081905092915050565b600061267582611b6e565b61267f818561265f565b935061268f818560208601611b8a565b80840191505092915050565b60006126a7828561266a565b91506126b3828461266a565b91508190509392505050565b60006060820190506126d46000830186611cb5565b6126e16020830185611ee1565b6126ee6040830184611cb5565b949350505050565b600081519050919050565b600082825260208201905092915050565b600061271d826126f6565b6127278185612701565b9350612737818560208601611b8a565b61274081611bb4565b840191505092915050565b60006080820190506127606000830187611cb5565b61276d6020830186611cb5565b61277a6040830185611ee1565b818103606083015261278c8184612712565b905095945050505050565b6000815190506127a681611adf565b92915050565b6000602082840312156127c2576127c1611aa9565b5b60006127d084828501612797565b91505092915050565b7f4e487b7100000000000000000000000000000000000000000000000000000000600052601260045260246000fd5b600060408201905061281d6000830185611cb5565b61282a6020830184611ee1565b939250505056fea2646970667358221220da7b8055912ce9d2b300c257b00b513a476483bdfbf56b7e84dd8fabe720f41564736f6c63430008180033",
  "linkReferences": {},
  "deployedLinkReferences": {}
}