{
  "_format": "hh-sol-artifact-1",
  "contractName": "NFT",
  "sourceName": "contracts/NFT.sol",
  "abi": [
    {
      "inputs": [
        {
          "internalType": "string",
          "name": "name",
          "type": "string"
        },
        {
          "internalType": "string",
          "name": "symbol",
          "type": "string"
        }
      ],
      "stateMutability": "nonpayable",
      "type": "constructor"
    },
    {
      "inputs": [
        {
          "internalType": "address",
          "name": "sender",
          "type": "address"
        },
        {
          "internalType": "uint256",
          "name": "tokenId",
          "type": "uint256"
        },
        {
          "internalType": "address",
          "name": "owner",
          "type": "address"
        }
      ],
      "name": "ERC721IncorrectOwner",
      "type": "error"
    },
    {
      "inputs": [
        {
          "internalType": "address",
          "name": "operator",
          "type": "address"
        },
        {
          "internalType": "uint256",
          "name": "tokenId",
          "type": "uint256"
        }
      ],
      "name": "ERC721InsufficientApproval",
      "type": "error"
    },
    {
      "inputs": [
        {
          "internalType": "address",
          "name": "approver",
          "type": "address"
        }
      ],
      "name": "ERC721InvalidApprover",
      "type": "error"
    },
    {
      "inputs": [
        {
          "internalType": "address",
          "name": "operator",
          "type": "address"
        }
      ],
      "name": "ERC721InvalidOperator",
      "type": "error"
    },
    {
      "inputs": [
        {
          "internalType": "address",
          "name": "owner",
          "type": "address"
        }
      ],
      "name": "ERC721InvalidOwner",
      "type": "error"
    },
    {
      "inputs": [
        {
          "internalType": "address",
          "name": "receiver",
          "type": "address"
        }
      ],
      "name": "ERC721InvalidReceiver",
      "type": "error"
    },
    {
      "inputs": [
        {
          "internalType": "address",
          "name": "sender",
          "type": "address"
        }
      ],
      "name": "ERC721InvalidSender",
      "type": "error"
    },
    {
      "inputs": [
        {
          "internalType": "uint256",
          "name": "tokenId",
          "type": "uint256"
        }
      ],
      "name": "ERC721NonexistentToken",
      "type": "error"
    },
    {
      "anonymous": false,
      "inputs": [
        {
          "indexed": true,
          "internalType": "address",
          "name": "owner",
          "type": "address"
        },
        {
          "indexed": true,
          "internalType": "address",
          "name": "approved",
          "type": "address"
        },
        {
          "indexed": true,
          "internalType": "uint256",
          "name": "tokenId",
          "type": "uint256"
        }
      ],
      "name": "Approval",
      "type": "event"
    },
    {
      "anonymous": false,
      "inputs": [
        {
          "indexed": true,
          "internalType": "address",
          "name": "owner",
          "type": "address"
        },
        {
          "indexed": true,
          "internalType": "address",
          "name": "operator",
          "type": "address"
        },
        {
          "indexed": false,
          "internalType": "bool",
          "name": "approved",
          "type": "bool"
        }
      ],
      "name": "ApprovalForAll",
      "type": "event"
    },
    {
      "anonymous": false,
      "inputs": [
        {
          "indexed": true,
          "internalType": "address",
          "name": "from",
          "type": "address"
        },
        {
          "indexed": true,
          "internalType": "address",
          "name": "to",
          "type": "address"
        },
        {
          "indexed": true,
          "internalType": "uint256",
          "name": "tokenId",
          "type": "uint256"
        }
      ],
      "name": "Transfer",
      "type": "event"
    },
    {
      "inputs": [
        {
          "internalType": "address",
          "name": "to",
          "type": "address"
        },
        {
          "internalType": "uint256",
          "name": "tokenId",
          "type": "uint256"
        }
      ],
      "name": "approve",
      "outputs": [],
      "stateMutability": "nonpayable",
      "type": "function"
    },
    {
      "inputs": [
        {
          "internalType": "address",
          "name": "owner",
          "type": "address"
        }
      ],
      "name": "balanceOf",
      "outputs": [
        {
          "internalType": "uint256",
          "name": "",
          "type": "uint256"
        }
      ],
      "stateMutability": "view",
      "type": "function"
    },
    {
      "inputs": [
        {
          "internalType": "uint256",
          "name": "tokenId",
          "type": "uint256"
        }
      ],
      "name": "getApproved",
      "outputs": [
        {
          "internalType": "address",
          "name": "",
          "type": "address"
        }
      ],
      "stateMutability": "view",
      "type": "function"
    },
    {
      "inputs": [],
      "name": "getNFTs",
      "outputs": [
        {
          "internalType": "string[]",
          "name": "names",
          "type": "string[]"
        },
        {
          "internalType": "string[]",
          "name": "symbols",
          "type": "string[]"
        }
      ],
      "stateMutability": "view",
      "type": "function"
    },
    {
      "inputs": [
        {
          "internalType": "address",
          "name": "owner",
          "type": "address"
        },
        {
          "internalType": "address",
          "name": "operator",
          "type": "address"
        }
      ],
      "name": "isApprovedForAll",
      "outputs": [
        {
          "internalType": "bool",
          "name": "",
          "type": "bool"
        }
      ],
      "stateMutability": "view",
      "type": "function"
    },
    {
      "inputs": [
        {
          "internalType": "address",
          "name": "to",
          "type": "address"
        },
        {
          "internalType": "string",
          "name": "name",
          "type": "string"
        },
        {
          "internalType": "string",
          "name": "symbol",
          "type": "string"
        }
      ],
      "name": "mint",
      "outputs": [],
      "stateMutability": "nonpayable",
      "type": "function"
    },
    {
      "inputs": [],
      "name": "name",
      "outputs": [
        {
          "internalType": "string",
          "name": "",
          "type": "string"
        }
      ],
      "stateMutability": "view",
      "type": "function"
    },
    {
      "inputs": [
        {
          "internalType": "uint256",
          "name": "",
          "type": "uint256"
        }
      ],
      "name": "nfts",
      "outputs": [
        {
          "internalType": "string",
          "name": "name",
          "type": "string"
        },
        {
          "internalType": "string",
          "name": "symbol",
          "type": "string"
        }
      ],
      "stateMutability": "view",
      "type": "function"
    },
    {
      "inputs": [
        {
          "internalType": "uint256",
          "name": "tokenId",
          "type": "uint256"
        }
      ],
      "name": "ownerOf",
      "outputs": [
        {
          "internalType": "address",
          "name": "",
          "type": "address"
        }
      ],
      "stateMutability": "view",
      "type": "function"
    },
    {
      "inputs": [
        {
          "internalType": "address",
          "name": "from",
          "type": "address"
        },
        {
          "internalType": "address",
          "name": "to",
          "type": "address"
        },
        {
          "internalType": "uint256",
          "name": "tokenId",
          "type": "uint256"
        }
      ],
      "name": "safeTransferFrom",
      "outputs": [],
      "stateMutability": "nonpayable",
      "type": "function"
    },
    {
      "inputs": [
        {
          "internalType": "address",
          "name": "from",
          "type": "address"
        },
        {
          "internalType": "address",
          "name": "to",
          "type": "address"
        },
        {
          "internalType": "uint256",
          "name": "tokenId",
          "type": "uint256"
        },
        {
          "internalType": "bytes",
          "name": "data",
          "type": "bytes"
        }
      ],
      "name": "safeTransferFrom",
      "outputs": [],
      "stateMutability": "nonpayable",
      "type": "function"
    },
    {
      "inputs": [
        {
          "internalType": "address",
          "name": "operator",
          "type": "address"
        },
        {
          "internalType": "bool",
          "name": "approved",
          "type": "bool"
        }
      ],
      "name": "setApprovalForAll",
      "outputs": [],
      "stateMutability": "nonpayable",
      "type": "function"
    },
    {
      "inputs": [
        {
          "internalType": "bytes4",
          "name": "interfaceId",
          "type": "bytes4"
        }
      ],
      "name": "supportsInterface",
      "outputs": [
        {
          "internalType": "bool",
          "name": "",
          "type": "bool"
        }
      ],
      "stateMutability": "view",
      "type": "function"
    },
    {
      "inputs": [],
      "name": "symbol",
      "outputs": [
        {
          "internalType": "string",
          "name": "",
          "type": "string"
        }
      ],
      "stateMutability": "view",
      "type": "function"
    },
    {
      "inputs": [
        {
          "internalType": "uint256",
          "name": "tokenId",
          "type": "uint256"
        }
      ],
      "name": "tokenURI",
      "outputs": [
        {
          "internalType": "string",
          "name": "",
          "type": "string"
        }
      ],
      "stateMutability": "view",
      "type": "function"
    },
    {
      "inputs": [
        {
          "internalType": "address",
          "name": "from",
          "type": "address"
        },
        {
          "internalType": "address",
          "name": "to",
          "type": "address"
        },
        {
          "internalType": "uint256",
          "name": "tokenId",
          "type": "uint256"
        }
      ],
      "name": "transferFrom",
      "outputs": [],
      "stateMutability": "nonpayable",
      "type": "function"
    }
  ],
  "bytecode": "0x60806040523480156200001157600080fd5b5060405162002d6938038062002d698339818101604052810190620000379190620001fa565b818181600090816200004a9190620004ca565b5080600190816200005c9190620004ca565b5050505050620005b1565b6000604051905090565b600080fd5b600080fd5b600080fd5b600080fd5b6000601f19601f8301169050919050565b7f4e487b7100000000000000000000000000000000000000000000000000000000600052604160045260246000fd5b620000d08262000085565b810181811067ffffffffffffffff82111715620000f257620000f162000096565b5b80604052505050565b60006200010762000067565b9050620001158282620000c5565b919050565b600067ffffffffffffffff82111562000138576200013762000096565b5b620001438262000085565b9050602081019050919050565b60005b838110156200017057808201518184015260208101905062000153565b60008484015250505050565b6000620001936200018d846200011a565b620000fb565b905082815260208101848484011115620001b257620001b162000080565b5b620001bf84828562000150565b509392505050565b600082601f830112620001df57620001de6200007b565b5b8151620001f18482602086016200017c565b91505092915050565b6000806040838503121562000214576200021362000071565b5b600083015167ffffffffffffffff81111562000235576200023462000076565b5b6200024385828601620001c7565b925050602083015167ffffffffffffffff81111562000267576200026662000076565b5b6200027585828601620001c7565b9150509250929050565b600081519050919050565b7f4e487b7100000000000000000000000000000000000000000000000000000000600052602260045260246000fd5b60006002820490506001821680620002d257607f821691505b602082108103620002e857620002e76200028a565b5b50919050565b60008190508160005260206000209050919050565b60006020601f8301049050919050565b600082821b905092915050565b600060088302620003527fffffffffffffffffffffffffffffffffffffffffffffffffffffffffffffffff8262000313565b6200035e868362000313565b95508019841693508086168417925050509392505050565b6000819050919050565b6000819050919050565b6000620003ab620003a56200039f8462000376565b62000380565b62000376565b9050919050565b6000819050919050565b620003c7836200038a565b620003df620003d682620003b2565b84845462000320565b825550505050565b600090565b620003f6620003e7565b62000403818484620003bc565b505050565b5b818110156200042b576200041f600082620003ec565b60018101905062000409565b5050565b601f8211156200047a576200044481620002ee565b6200044f8462000303565b810160208510156200045f578190505b620004776200046e8562000303565b83018262000408565b50505b505050565b600082821c905092915050565b60006200049f600019846008026200047f565b1980831691505092915050565b6000620004ba83836200048c565b9150826002028217905092915050565b620004d5826200027f565b67ffffffffffffffff811115620004f157620004f062000096565b5b620004fd8254620002b9565b6200050a8282856200042f565b600060209050601f8311600181146200054257600084156200052d578287015190505b620005398582620004ac565b865550620005a9565b601f1984166200055286620002ee565b60005b828110156200057c5784890151825560018201915060208501945060208101905062000555565b868310156200059c578489015162000598601f8916826200048c565b8355505b6001600288020188555050505b505050505050565b6127a880620005c16000396000f3fe608060405234801561001057600080fd5b50600436106101005760003560e01c80636352211e11610097578063a22cb46511610066578063a22cb465146102c1578063b88d4fde146102dd578063c87b56dd146102f9578063e985e9c51461032957610100565b80636352211e1461022757806370a082311461025757806395d89b411461028757806399071190146102a557610100565b8063227212f2116100d3578063227212f21461019f57806323b872dd146101be578063265aa621146101da57806342842e0e1461020b57610100565b806301ffc9a71461010557806306fdde0314610135578063081812fc14610153578063095ea7b314610183575b600080fd5b61011f600480360381019061011a9190611a9f565b610359565b60405161012c9190611ae7565b60405180910390f35b61013d61043b565b60405161014a9190611b92565b60405180910390f35b61016d60048036038101906101689190611bea565b6104cd565b60405161017a9190611c58565b60405180910390f35b61019d60048036038101906101989190611c9f565b6104e9565b005b6101a76104ff565b6040516101b5929190611deb565b60405180910390f35b6101d860048036038101906101d39190611e22565b610766565b005b6101f460048036038101906101ef9190611bea565b610776565b604051610202929190611e75565b60405180910390f35b61022560048036038101906102209190611e22565b6108ba565b005b610241600480360381019061023c9190611bea565b6108da565b60405161024e9190611c58565b60405180910390f35b610271600480360381019061026c9190611eac565b6108ec565b60405161027e9190611ee8565b60405180910390f35b61028f6109a6565b60405161029c9190611b92565b60405180910390f35b6102bf60048036038101906102ba9190612038565b610a38565b005b6102db60048036038101906102d691906120ef565b610ac0565b005b6102f760048036038101906102f291906121d0565b610ad6565b005b610313600480360381019061030e9190611bea565b610af3565b6040516103209190611b92565b60405180910390f35b610343600480360381019061033e9190612253565b610b5c565b6040516103509190611ae7565b60405180910390f35b60007f80ac58cd000000000000000000000000000000000000000000000000000000007bffffffffffffffffffffffffffffffffffffffffffffffffffffffff1916827bffffffffffffffffffffffffffffffffffffffffffffffffffffffff1916148061042457507f5b5e139f000000000000000000000000000000000000000000000000000000007bffffffffffffffffffffffffffffffffffffffffffffffffffffffff1916827bffffffffffffffffffffffffffffffffffffffffffffffffffffffff1916145b80610434575061043382610bf0565b5b9050919050565b60606000805461044a906122c2565b80601f0160208091040260200160405190810160405280929190818152602001828054610476906122c2565b80156104c35780601f10610498576101008083540402835291602001916104c3565b820191906000526020600020905b8154815290600101906020018083116104a657829003601f168201915b5050505050905090565b60006104d882610c5a565b506104e282610ce2565b9050919050565b6104fb82826104f6610d1f565b610d27565b5050565b60608060068054905067ffffffffffffffff81111561052157610520611f0d565b5b60405190808252806020026020018201604052801561055457816020015b606081526020019060019003908161053f5790505b50915060068054905067ffffffffffffffff81111561057657610575611f0d565b5b6040519080825280602002602001820160405280156105a957816020015b60608152602001906001900390816105945790505b50905060005b60068054905081101561076157600681815481106105d0576105cf6122f3565b5b906000526020600020906002020160000180546105ec906122c2565b80601f0160208091040260200160405190810160405280929190818152602001828054610618906122c2565b80156106655780601f1061063a57610100808354040283529160200191610665565b820191906000526020600020905b81548152906001019060200180831161064857829003601f168201915b505050505083828151811061067d5761067c6122f3565b5b60200260200101819052506006818154811061069c5761069b6122f3565b5b906000526020600020906002020160010180546106b8906122c2565b80601f01602080910402602001604051908101604052809291908181526020018280546106e4906122c2565b80156107315780601f1061070657610100808354040283529160200191610731565b820191906000526020600020905b81548152906001019060200180831161071457829003601f168201915b5050505050828281518110610749576107486122f3565b5b602002602001018190525080806001019150506105af565b509091565b610771838383610d39565b505050565b6006818154811061078657600080fd5b90600052602060002090600202016000915090508060000180546107a9906122c2565b80601f01602080910402602001604051908101604052809291908181526020018280546107d5906122c2565b80156108225780601f106107f757610100808354040283529160200191610822565b820191906000526020600020905b81548152906001019060200180831161080557829003601f168201915b505050505090806001018054610837906122c2565b80601f0160208091040260200160405190810160405280929190818152602001828054610863906122c2565b80156108b05780601f10610885576101008083540402835291602001916108b0565b820191906000526020600020905b81548152906001019060200180831161089357829003601f168201915b5050505050905082565b6108d583838360405180602001604052806000815250610ad6565b505050565b60006108e582610c5a565b9050919050565b60008073ffffffffffffffffffffffffffffffffffffffff168273ffffffffffffffffffffffffffffffffffffffff160361095f5760006040517f89c62b640000000000000000000000000000000000000000000000000000000081526004016109569190611c58565b60405180910390fd5b600360008373ffffffffffffffffffffffffffffffffffffffff1673ffffffffffffffffffffffffffffffffffffffff168152602001908152602001600020549050919050565b6060600180546109b5906122c2565b80601f01602080910402602001604051908101604052809291908181526020018280546109e1906122c2565b8015610a2e5780601f10610a0357610100808354040283529160200191610a2e565b820191906000526020600020905b815481529060010190602001808311610a1157829003601f168201915b5050505050905090565b60006006805490509050610a4c8482610e3b565b600660405180604001604052808581526020018481525090806001815401808255809150506001900390600052602060002090600202016000909190919091506000820151816000019081610aa191906124ce565b506020820151816001019081610ab791906124ce565b50505050505050565b610ad2610acb610d1f565b8383610f34565b5050565b610ae1848484610766565b610aed848484846110a3565b50505050565b6060610afe82610c5a565b506000610b0961125a565b90506000815111610b295760405180602001604052806000815250610b54565b80610b3384611271565b604051602001610b449291906125dc565b6040516020818303038152906040525b915050919050565b6000600560008473ffffffffffffffffffffffffffffffffffffffff1673ffffffffffffffffffffffffffffffffffffffff16815260200190815260200160002060008373ffffffffffffffffffffffffffffffffffffffff1673ffffffffffffffffffffffffffffffffffffffff16815260200190815260200160002060009054906101000a900460ff16905092915050565b60007f01ffc9a7000000000000000000000000000000000000000000000000000000007bffffffffffffffffffffffffffffffffffffffffffffffffffffffff1916827bffffffffffffffffffffffffffffffffffffffffffffffffffffffff1916149050919050565b600080610c668361133f565b9050600073ffffffffffffffffffffffffffffffffffffffff168173ffffffffffffffffffffffffffffffffffffffff1603610cd957826040517f7e273289000000000000000000000000000000000000000000000000000000008152600401610cd09190611ee8565b60405180910390fd5b80915050919050565b60006004600083815260200190815260200160002060009054906101000a900473ffffffffffffffffffffffffffffffffffffffff169050919050565b600033905090565b610d34838383600161137c565b505050565b600073ffffffffffffffffffffffffffffffffffffffff168273ffffffffffffffffffffffffffffffffffffffff1603610dab5760006040517f64a0ae92000000000000000000000000000000000000000000000000000000008152600401610da29190611c58565b60405180910390fd5b6000610dbf8383610dba610d1f565b611541565b90508373ffffffffffffffffffffffffffffffffffffffff168173ffffffffffffffffffffffffffffffffffffffff1614610e35578382826040517f64283d7b000000000000000000000000000000000000000000000000000000008152600401610e2c93929190612600565b60405180910390fd5b50505050565b600073ffffffffffffffffffffffffffffffffffffffff168273ffffffffffffffffffffffffffffffffffffffff1603610ead5760006040517f64a0ae92000000000000000000000000000000000000000000000000000000008152600401610ea49190611c58565b60405180910390fd5b6000610ebb83836000611541565b9050600073ffffffffffffffffffffffffffffffffffffffff168173ffffffffffffffffffffffffffffffffffffffff1614610f2f5760006040517f73c6ac6e000000000000000000000000000000000000000000000000000000008152600401610f269190611c58565b60405180910390fd5b505050565b600073ffffffffffffffffffffffffffffffffffffffff168273ffffffffffffffffffffffffffffffffffffffff1603610fa557816040517f5b08ba18000000000000000000000000000000000000000000000000000000008152600401610f9c9190611c58565b60405180910390fd5b80600560008573ffffffffffffffffffffffffffffffffffffffff1673ffffffffffffffffffffffffffffffffffffffff16815260200190815260200160002060008473ffffffffffffffffffffffffffffffffffffffff1673ffffffffffffffffffffffffffffffffffffffff16815260200190815260200160002060006101000a81548160ff0219169083151502179055508173ffffffffffffffffffffffffffffffffffffffff168373ffffffffffffffffffffffffffffffffffffffff167f17307eab39ab6107e8899845ad3d59bd9653f200f220920489ca2b5937696c31836040516110969190611ae7565b60405180910390a3505050565b60008373ffffffffffffffffffffffffffffffffffffffff163b1115611254578273ffffffffffffffffffffffffffffffffffffffff1663150b7a026110e7610d1f565b8685856040518563ffffffff1660e01b8152600401611109949392919061268c565b6020604051808303816000875af192505050801561114557506040513d601f19601f8201168201806040525081019061114291906126ed565b60015b6111c9573d8060008114611175576040519150601f19603f3d011682016040523d82523d6000602084013e61117a565b606091505b5060008151036111c157836040517f64a0ae920000000000000000000000000000000000000000000000000000000081526004016111b89190611c58565b60405180910390fd5b805181602001fd5b63150b7a0260e01b7bffffffffffffffffffffffffffffffffffffffffffffffffffffffff1916817bffffffffffffffffffffffffffffffffffffffffffffffffffffffff19161461125257836040517f64a0ae920000000000000000000000000000000000000000000000000000000081526004016112499190611c58565b60405180910390fd5b505b50505050565b606060405180602001604052806000815250905090565b6060600060016112808461175b565b01905060008167ffffffffffffffff81111561129f5761129e611f0d565b5b6040519080825280601f01601f1916602001820160405280156112d15781602001600182028036833780820191505090505b509050600082602001820190505b600115611334578080600190039150507f3031323334353637383961626364656600000000000000000000000000000000600a86061a8153600a85816113285761132761271a565b5b049450600085036112df575b819350505050919050565b60006002600083815260200190815260200160002060009054906101000a900473ffffffffffffffffffffffffffffffffffffffff169050919050565b80806113b55750600073ffffffffffffffffffffffffffffffffffffffff168273ffffffffffffffffffffffffffffffffffffffff1614155b156114e95760006113c584610c5a565b9050600073ffffffffffffffffffffffffffffffffffffffff168373ffffffffffffffffffffffffffffffffffffffff161415801561143057508273ffffffffffffffffffffffffffffffffffffffff168173ffffffffffffffffffffffffffffffffffffffff1614155b801561144357506114418184610b5c565b155b1561148557826040517fa9fbf51f00000000000000000000000000000000000000000000000000000000815260040161147c9190611c58565b60405180910390fd5b81156114e757838573ffffffffffffffffffffffffffffffffffffffff168273ffffffffffffffffffffffffffffffffffffffff167f8c5be1e5ebec7d5bd14f71427d1e84f3dd0314c0f7b2291e5b200ac8c7c3b92560405160405180910390a45b505b836004600085815260200190815260200160002060006101000a81548173ffffffffffffffffffffffffffffffffffffffff021916908373ffffffffffffffffffffffffffffffffffffffff16021790555050505050565b60008061154d8461133f565b9050600073ffffffffffffffffffffffffffffffffffffffff168373ffffffffffffffffffffffffffffffffffffffff161461158f5761158e8184866118ae565b5b600073ffffffffffffffffffffffffffffffffffffffff168173ffffffffffffffffffffffffffffffffffffffff1614611620576115d160008560008061137c565b6001600360008373ffffffffffffffffffffffffffffffffffffffff1673ffffffffffffffffffffffffffffffffffffffff168152602001908152602001600020600082825403925050819055505b600073ffffffffffffffffffffffffffffffffffffffff168573ffffffffffffffffffffffffffffffffffffffff16146116a3576001600360008773ffffffffffffffffffffffffffffffffffffffff1673ffffffffffffffffffffffffffffffffffffffff168152602001908152602001600020600082825401925050819055505b846002600086815260200190815260200160002060006101000a81548173ffffffffffffffffffffffffffffffffffffffff021916908373ffffffffffffffffffffffffffffffffffffffff160217905550838573ffffffffffffffffffffffffffffffffffffffff168273ffffffffffffffffffffffffffffffffffffffff167fddf252ad1be2c89b69c2b068fc378daa952ba7f163c4a11628f55a4df523b3ef60405160405180910390a4809150509392505050565b600080600090507a184f03e93ff9f4daa797ed6e38ed64bf6a1f01000000000000000083106117b9577a184f03e93ff9f4daa797ed6e38ed64bf6a1f01000000000000000083816117af576117ae61271a565b5b0492506040810190505b6d04ee2d6d415b85acef810000000083106117f6576d04ee2d6d415b85acef810000000083816117ec576117eb61271a565b5b0492506020810190505b662386f26fc10000831061182557662386f26fc10000838161181b5761181a61271a565b5b0492506010810190505b6305f5e100831061184e576305f5e10083816118445761184361271a565b5b0492506008810190505b61271083106118735761271083816118695761186861271a565b5b0492506004810190505b60648310611896576064838161188c5761188b61271a565b5b0492506002810190505b600a83106118a5576001810190505b80915050919050565b6118b9838383611972565b61196d57600073ffffffffffffffffffffffffffffffffffffffff168373ffffffffffffffffffffffffffffffffffffffff160361192e57806040517f7e2732890000000000000000000000000000000000000000000000000000000081526004016119259190611ee8565b60405180910390fd5b81816040517f177e802f000000000000000000000000000000000000000000000000000000008152600401611964929190612749565b60405180910390fd5b505050565b60008073ffffffffffffffffffffffffffffffffffffffff168373ffffffffffffffffffffffffffffffffffffffff1614158015611a2a57508273ffffffffffffffffffffffffffffffffffffffff168473ffffffffffffffffffffffffffffffffffffffff1614806119eb57506119ea8484610b5c565b5b80611a2957508273ffffffffffffffffffffffffffffffffffffffff16611a1183610ce2565b73ffffffffffffffffffffffffffffffffffffffff16145b5b90509392505050565b6000604051905090565b600080fd5b600080fd5b60007fffffffff0000000000000000000000000000000000000000000000000000000082169050919050565b611a7c81611a47565b8114611a8757600080fd5b50565b600081359050611a9981611a73565b92915050565b600060208284031215611ab557611ab4611a3d565b5b6000611ac384828501611a8a565b91505092915050565b60008115159050919050565b611ae181611acc565b82525050565b6000602082019050611afc6000830184611ad8565b92915050565b600081519050919050565b600082825260208201905092915050565b60005b83811015611b3c578082015181840152602081019050611b21565b60008484015250505050565b6000601f19601f8301169050919050565b6000611b6482611b02565b611b6e8185611b0d565b9350611b7e818560208601611b1e565b611b8781611b48565b840191505092915050565b60006020820190508181036000830152611bac8184611b59565b905092915050565b6000819050919050565b611bc781611bb4565b8114611bd257600080fd5b50565b600081359050611be481611bbe565b92915050565b600060208284031215611c0057611bff611a3d565b5b6000611c0e84828501611bd5565b91505092915050565b600073ffffffffffffffffffffffffffffffffffffffff82169050919050565b6000611c4282611c17565b9050919050565b611c5281611c37565b82525050565b6000602082019050611c6d6000830184611c49565b92915050565b611c7c81611c37565b8114611c8757600080fd5b50565b600081359050611c9981611c73565b92915050565b60008060408385031215611cb657611cb5611a3d565b5b6000611cc485828601611c8a565b9250506020611cd585828601611bd5565b9150509250929050565b600081519050919050565b600082825260208201905092915050565b6000819050602082019050919050565b600082825260208201905092915050565b6000611d2782611b02565b611d318185611d0b565b9350611d41818560208601611b1e565b611d4a81611b48565b840191505092915050565b6000611d618383611d1c565b905092915050565b6000602082019050919050565b6000611d8182611cdf565b611d8b8185611cea565b935083602082028501611d9d85611cfb565b8060005b85811015611dd95784840389528151611dba8582611d55565b9450611dc583611d69565b925060208a01995050600181019050611da1565b50829750879550505050505092915050565b60006040820190508181036000830152611e058185611d76565b90508181036020830152611e198184611d76565b90509392505050565b600080600060608486031215611e3b57611e3a611a3d565b5b6000611e4986828701611c8a565b9350506020611e5a86828701611c8a565b9250506040611e6b86828701611bd5565b9150509250925092565b60006040820190508181036000830152611e8f8185611b59565b90508181036020830152611ea38184611b59565b90509392505050565b600060208284031215611ec257611ec1611a3d565b5b6000611ed084828501611c8a565b91505092915050565b611ee281611bb4565b82525050565b6000602082019050611efd6000830184611ed9565b92915050565b600080fd5b600080fd5b7f4e487b7100000000000000000000000000000000000000000000000000000000600052604160045260246000fd5b611f4582611b48565b810181811067ffffffffffffffff82111715611f6457611f63611f0d565b5b80604052505050565b6000611f77611a33565b9050611f838282611f3c565b919050565b600067ffffffffffffffff821115611fa357611fa2611f0d565b5b611fac82611b48565b9050602081019050919050565b82818337600083830152505050565b6000611fdb611fd684611f88565b611f6d565b905082815260208101848484011115611ff757611ff6611f08565b5b612002848285611fb9565b509392505050565b600082601f83011261201f5761201e611f03565b5b813561202f848260208601611fc8565b91505092915050565b60008060006060848603121561205157612050611a3d565b5b600061205f86828701611c8a565b935050602084013567ffffffffffffffff8111156120805761207f611a42565b5b61208c8682870161200a565b925050604084013567ffffffffffffffff8111156120ad576120ac611a42565b5b6120b98682870161200a565b9150509250925092565b6120cc81611acc565b81146120d757600080fd5b50565b6000813590506120e9816120c3565b92915050565b6000806040838503121561210657612105611a3d565b5b600061211485828601611c8a565b9250506020612125858286016120da565b9150509250929050565b600067ffffffffffffffff82111561214a57612149611f0d565b5b61215382611b48565b9050602081019050919050565b600061217361216e8461212f565b611f6d565b90508281526020810184848401111561218f5761218e611f08565b5b61219a848285611fb9565b509392505050565b600082601f8301126121b7576121b6611f03565b5b81356121c7848260208601612160565b91505092915050565b600080600080608085870312156121ea576121e9611a3d565b5b60006121f887828801611c8a565b945050602061220987828801611c8a565b935050604061221a87828801611bd5565b925050606085013567ffffffffffffffff81111561223b5761223a611a42565b5b612247878288016121a2565b91505092959194509250565b6000806040838503121561226a57612269611a3d565b5b600061227885828601611c8a565b925050602061228985828601611c8a565b9150509250929050565b7f4e487b7100000000000000000000000000000000000000000000000000000000600052602260045260246000fd5b600060028204905060018216806122da57607f821691505b6020821081036122ed576122ec612293565b5b50919050565b7f4e487b7100000000000000000000000000000000000000000000000000000000600052603260045260246000fd5b60008190508160005260206000209050919050565b60006020601f8301049050919050565b600082821b905092915050565b6000600883026123847fffffffffffffffffffffffffffffffffffffffffffffffffffffffffffffffff82612347565b61238e8683612347565b95508019841693508086168417925050509392505050565b6000819050919050565b60006123cb6123c66123c184611bb4565b6123a6565b611bb4565b9050919050565b6000819050919050565b6123e5836123b0565b6123f96123f1826123d2565b848454612354565b825550505050565b600090565b61240e612401565b6124198184846123dc565b505050565b5b8181101561243d57612432600082612406565b60018101905061241f565b5050565b601f8211156124825761245381612322565b61245c84612337565b8101602085101561246b578190505b61247f61247785612337565b83018261241e565b50505b505050565b600082821c905092915050565b60006124a560001984600802612487565b1980831691505092915050565b60006124be8383612494565b9150826002028217905092915050565b6124d782611b02565b67ffffffffffffffff8111156124f0576124ef611f0d565b5b6124fa82546122c2565b612505828285612441565b600060209050601f8311600181146125385760008415612526578287015190505b61253085826124b2565b865550612598565b601f19841661254686612322565b60005b8281101561256e57848901518255600182019150602085019450602081019050612549565b8683101561258b5784890151612587601f891682612494565b8355505b6001600288020188555050505b505050505050565b600081905092915050565b60006125b682611b02565b6125c081856125a0565b93506125d0818560208601611b1e565b80840191505092915050565b60006125e882856125ab565b91506125f482846125ab565b91508190509392505050565b60006060820190506126156000830186611c49565b6126226020830185611ed9565b61262f6040830184611c49565b949350505050565b600081519050919050565b600082825260208201905092915050565b600061265e82612637565b6126688185612642565b9350612678818560208601611b1e565b61268181611b48565b840191505092915050565b60006080820190506126a16000830187611c49565b6126ae6020830186611c49565b6126bb6040830185611ed9565b81810360608301526126cd8184612653565b905095945050505050565b6000815190506126e781611a73565b92915050565b60006020828403121561270357612702611a3d565b5b6000612711848285016126d8565b91505092915050565b7f4e487b7100000000000000000000000000000000000000000000000000000000600052601260045260246000fd5b600060408201905061275e6000830185611c49565b61276b6020830184611ed9565b939250505056fea26469706673582212209a17abec4cc42a07562d7675467a97244333c898808097ad0ab964bb8aecd7e964736f6c63430008180033",
  "linkReferences": {},
  "deployedLinkReferences": {}
}