{
  "_format": "hh-sol-artifact-1",
  "contractName": "NFTFactory",
  "sourceName": "contracts/NFTFactory.sol",
  "abi": [
    {
      "inputs": [],
      "stateMutability": "nonpayable",
      "type": "constructor"
    },
    {
      "inputs": [
        {
          "internalType": "address",
          "name": "collection",
          "type": "address"
        }
      ],
      "name": "ALREADY_LISTED",
      "type": "error"
    },
    {
      "anonymous": false,
      "inputs": [
        {
          "indexed": false,
          "internalType": "address",
          "name": "collectionAddress",
          "type": "address"
        },
        {
          "indexed": false,
          "internalType": "string",
          "name": "name",
          "type": "string"
        },
        {
          "indexed": false,
          "internalType": "string",
          "name": "symbol",
          "type": "string"
        }
      ],
      "name": "CollectionCreated",
      "type": "event"
    },
    {
      "anonymous": false,
      "inputs": [
        {
          "indexed": false,
          "internalType": "string",
          "name": "message",
          "type": "string"
        }
      ],
      "name": "Debug",
      "type": "event"
    },
    {
      "anonymous": false,
      "inputs": [
        {
          "indexed": false,
          "internalType": "address",
          "name": "collectionAddress",
          "type": "address"
        },
        {
          "indexed": false,
          "internalType": "uint256",
          "name": "tokenId",
          "type": "uint256"
        },
        {
          "indexed": false,
          "internalType": "string",
          "name": "name",
          "type": "string"
        },
        {
          "indexed": false,
          "internalType": "string",
          "name": "symbol",
          "type": "string"
        },
        {
          "indexed": false,
          "internalType": "address",
          "name": "owner",
          "type": "address"
        }
      ],
      "name": "NFTMinted",
      "type": "event"
    },
    {
      "inputs": [
        {
          "internalType": "address",
          "name": "collectionAddress",
          "type": "address"
        },
        {
          "internalType": "string",
          "name": "name",
          "type": "string"
        },
        {
          "internalType": "string",
          "name": "symbol",
          "type": "string"
        }
      ],
      "name": "addNFTToCollection",
      "outputs": [],
      "stateMutability": "nonpayable",
      "type": "function"
    },
    {
      "inputs": [
        {
          "internalType": "uint256",
          "name": "marketId",
          "type": "uint256"
        }
      ],
      "name": "buy",
      "outputs": [],
      "stateMutability": "payable",
      "type": "function"
    },
    {
      "inputs": [
        {
          "internalType": "uint256",
          "name": "",
          "type": "uint256"
        }
      ],
      "name": "collections",
      "outputs": [
        {
          "internalType": "address",
          "name": "collectionAddress",
          "type": "address"
        },
        {
          "internalType": "string",
          "name": "name",
          "type": "string"
        },
        {
          "internalType": "string",
          "name": "symbol",
          "type": "string"
        },
        {
          "internalType": "address",
          "name": "owner",
          "type": "address"
        }
      ],
      "stateMutability": "view",
      "type": "function"
    },
    {
      "inputs": [
        {
          "internalType": "string",
          "name": "name",
          "type": "string"
        },
        {
          "internalType": "string",
          "name": "symbol",
          "type": "string"
        }
      ],
      "name": "createCollection",
      "outputs": [],
      "stateMutability": "nonpayable",
      "type": "function"
    },
    {
      "inputs": [
        {
          "internalType": "address",
          "name": "collection",
          "type": "address"
        }
      ],
      "name": "getAlreadyListed",
      "outputs": [
        {
          "internalType": "bool",
          "name": "",
          "type": "bool"
        }
      ],
      "stateMutability": "view",
      "type": "function"
    },
    {
      "inputs": [],
      "name": "getCollections",
      "outputs": [
        {
          "components": [
            {
              "internalType": "address",
              "name": "collectionAddress",
              "type": "address"
            },
            {
              "internalType": "string",
              "name": "name",
              "type": "string"
            },
            {
              "internalType": "string",
              "name": "symbol",
              "type": "string"
            },
            {
              "internalType": "address",
              "name": "owner",
              "type": "address"
            }
          ],
          "internalType": "struct NFTFactory.Collection[]",
          "name": "",
          "type": "tuple[]"
        }
      ],
      "stateMutability": "view",
      "type": "function"
    },
    {
      "inputs": [
        {
          "internalType": "address",
          "name": "collectionAddress",
          "type": "address"
        }
      ],
      "name": "getNFTsInCollection",
      "outputs": [
        {
          "internalType": "string[]",
          "name": "names",
          "type": "string[]"
        },
        {
          "internalType": "string[]",
          "name": "symbols",
          "type": "string[]"
        }
      ],
      "stateMutability": "view",
      "type": "function"
    },
    {
      "inputs": [],
      "name": "idMarket",
      "outputs": [
        {
          "internalType": "uint256",
          "name": "",
          "type": "uint256"
        }
      ],
      "stateMutability": "view",
      "type": "function"
    },
    {
      "inputs": [
        {
          "internalType": "uint256",
          "name": "",
          "type": "uint256"
        }
      ],
      "name": "market",
      "outputs": [
        {
          "internalType": "uint256",
          "name": "price",
          "type": "uint256"
        },
        {
          "internalType": "address",
          "name": "seller",
          "type": "address"
        },
        {
          "internalType": "address",
          "name": "collection",
          "type": "address"
        },
        {
          "internalType": "uint256",
          "name": "timestamp",
          "type": "uint256"
        },
        {
          "internalType": "bool",
          "name": "locked",
          "type": "bool"
        }
      ],
      "stateMutability": "view",
      "type": "function"
    },
    {
      "inputs": [
        {
          "internalType": "uint256",
          "name": "price",
          "type": "uint256"
        },
        {
          "internalType": "address",
          "name": "collection",
          "type": "address"
        },
        {
          "internalType": "uint256",
          "name": "tokenId",
          "type": "uint256"
        }
      ],
      "name": "sell",
      "outputs": [],
      "stateMutability": "nonpayable",
      "type": "function"
    }
  ],
  "bytecode": "0x608060405234801561001057600080fd5b506153c0806100206000396000f3fe6080604052600436106200009e5760003560e01c80639ce043a111620000615780639ce043a114620001bb578063d96a094a14620001e9578063e4e18bfc1462000209578063fcdbd89d1462000239578063fdbda0ec146200027e576200009e565b8063176b9b7514620000a357806328861d2214620000d157806346e63586146200011957806367cdf6c914620001495780638ea2bd651462000177575b600080fd5b348015620000b057600080fd5b50620000cf6004803603810190620000c9919062001310565b620002c5565b005b348015620000de57600080fd5b50620000fd6004803603810190620000f79190620013d0565b6200047e565b6040516200011095949392919062001475565b60405180910390f35b3480156200012657600080fd5b506200013162000501565b604051620001409190620016ae565b60405180910390f35b3480156200015657600080fd5b506200017560048036038101906200016f919062001703565b62000742565b005b3480156200018457600080fd5b50620001a360048036038101906200019d91906200175f565b62000a05565b604051620001b2919062001791565b60405180910390f35b348015620001c857600080fd5b50620001e76004803603810190620001e19190620017ae565b62000aa6565b005b620002076004803603810190620002019190620013d0565b62000ce8565b005b3480156200021657600080fd5b506200022162000f5c565b60405162000230919062001848565b60405180910390f35b3480156200024657600080fd5b506200026560048036038101906200025f91906200175f565b62000f62565b6040516200027592919062001935565b60405180910390f35b3480156200028b57600080fd5b50620002aa6004803603810190620002a49190620013d0565b62000feb565b604051620002bc9493929190620019c2565b60405180910390f35b60008282604051620002d7906200118c565b620002e492919062001a1d565b604051809103906000f08015801562000301573d6000803e3d6000fd5b509050600060405180608001604052808373ffffffffffffffffffffffffffffffffffffffff1681526020018581526020018481526020013373ffffffffffffffffffffffffffffffffffffffff16815250908060018154018082558091505060019003906000526020600020906004020160009091909190915060008201518160000160006101000a81548173ffffffffffffffffffffffffffffffffffffffff021916908373ffffffffffffffffffffffffffffffffffffffff1602179055506020820151816001019081620003da919062001c8e565b506040820151816002019081620003f2919062001c8e565b5060608201518160030160006101000a81548173ffffffffffffffffffffffffffffffffffffffff021916908373ffffffffffffffffffffffffffffffffffffffff16021790555050507f3454b57f2dca4f5a54e8358d096ac9d1a0d2dab98991ddb89ff9ea1746260617818484604051620004719392919062001d75565b60405180910390a1505050565b60016020528060005260406000206000915090508060000154908060010160009054906101000a900473ffffffffffffffffffffffffffffffffffffffff16908060020160009054906101000a900473ffffffffffffffffffffffffffffffffffffffff16908060030154908060040160009054906101000a900460ff16905085565b60606000805480602002602001604051908101604052809291908181526020016000905b828210156200073957838290600052602060002090600402016040518060800160405290816000820160009054906101000a900473ffffffffffffffffffffffffffffffffffffffff1673ffffffffffffffffffffffffffffffffffffffff1673ffffffffffffffffffffffffffffffffffffffff168152602001600182018054620005b19062001a87565b80601f0160208091040260200160405190810160405280929190818152602001828054620005df9062001a87565b8015620006305780601f10620006045761010080835404028352916020019162000630565b820191906000526020600020905b8154815290600101906020018083116200061257829003601f168201915b505050505081526020016002820180546200064b9062001a87565b80601f0160208091040260200160405190810160405280929190818152602001828054620006799062001a87565b8015620006ca5780601f106200069e57610100808354040283529160200191620006ca565b820191906000526020600020905b815481529060010190602001808311620006ac57829003601f168201915b505050505081526020016003820160009054906101000a900473ffffffffffffffffffffffffffffffffffffffff1673ffffffffffffffffffffffffffffffffffffffff1673ffffffffffffffffffffffffffffffffffffffff16815250508152602001906001019062000525565b50505050905090565b7f7cdb51e9dbbc205231228146c3246e7f914aa6d4a33170e43ecc8e3593481d1a604051620007719062001e10565b60405180910390a160011515620007888362000a05565b15150362000806577f7cdb51e9dbbc205231228146c3246e7f914aa6d4a33170e43ecc8e3593481d1a604051620007bf9062001e82565b60405180910390a1816040517fda6c0c8c000000000000000000000000000000000000000000000000000000008152600401620007fd919062001ea4565b60405180910390fd5b7f7cdb51e9dbbc205231228146c3246e7f914aa6d4a33170e43ecc8e3593481d1a604051620008359062001f11565b60405180910390a16040518060a001604052808481526020013373ffffffffffffffffffffffffffffffffffffffff1681526020018373ffffffffffffffffffffffffffffffffffffffff168152602001428152602001600015158152506001600060025481526020019081526020016000206000820151816000015560208201518160010160006101000a81548173ffffffffffffffffffffffffffffffffffffffff021916908373ffffffffffffffffffffffffffffffffffffffff16021790555060408201518160020160006101000a81548173ffffffffffffffffffffffffffffffffffffffff021916908373ffffffffffffffffffffffffffffffffffffffff1602179055506060820151816003015560808201518160040160006101000a81548160ff02191690831515021790555090505060026000815480929190620009829062001f62565b919050555060008290508073ffffffffffffffffffffffffffffffffffffffff166323b872dd3330856040518463ffffffff1660e01b8152600401620009cb9392919062001faf565b600060405180830381600087803b158015620009e657600080fd5b505af1158015620009fb573d6000803e3d6000fd5b5050505050505050565b600080600090505b60025481101562000a9b578273ffffffffffffffffffffffffffffffffffffffff166001600083815260200190815260200160002060020160009054906101000a900473ffffffffffffffffffffffffffffffffffffffff1673ffffffffffffffffffffffffffffffffffffffff160362000a8d57600191505062000aa1565b808060010191505062000a0d565b50600090505b919050565b6000805b60008054905081101562000bcd578473ffffffffffffffffffffffffffffffffffffffff166000828154811062000ae65762000ae562001fec565b5b906000526020600020906004020160000160009054906101000a900473ffffffffffffffffffffffffffffffffffffffff1673ffffffffffffffffffffffffffffffffffffffff1614801562000baf57503373ffffffffffffffffffffffffffffffffffffffff166000828154811062000b655762000b6462001fec565b5b906000526020600020906004020160030160009054906101000a900473ffffffffffffffffffffffffffffffffffffffff1673ffffffffffffffffffffffffffffffffffffffff16145b1562000bbf576001915062000bcd565b808060010191505062000aaa565b508062000c11576040517f08c379a000000000000000000000000000000000000000000000000000000000815260040162000c089062002091565b60405180910390fd5b600084905060008173ffffffffffffffffffffffffffffffffffffffff1663990711903387876040518463ffffffff1660e01b815260040162000c579392919062001d75565b6020604051808303816000875af115801562000c77573d6000803e3d6000fd5b505050506040513d601f19601f8201168201806040525081019062000c9d9190620020ca565b90507fd6a8f540bcd51a548ea535aaf09333b05ece2e3d9faac18d178cdeeb199f31d8868287873360405162000cd8959493929190620020fc565b60405180910390a1505050505050565b600254811062000d2f576040517f08c379a000000000000000000000000000000000000000000000000000000000815260040162000d2690620021b7565b60405180910390fd5b6001600082815260200190815260200160002060040160009054906101000a900460ff161562000d96576040517f08c379a000000000000000000000000000000000000000000000000000000000815260040162000d8d9062002229565b60405180910390fd5b6000600160008381526020019081526020016000209050806000015434101562000df7576040517f08c379a000000000000000000000000000000000000000000000000000000000815260040162000dee90620022c1565b60405180910390fd5b60018160040160006101000a81548160ff0219169083151502179055508060010160009054906101000a900473ffffffffffffffffffffffffffffffffffffffff1673ffffffffffffffffffffffffffffffffffffffff166108fc82600001549081150290604051600060405180830381858888f1935050505015801562000e83573d6000803e3d6000fd5b5060008160020160009054906101000a900473ffffffffffffffffffffffffffffffffffffffff1690508073ffffffffffffffffffffffffffffffffffffffff166323b872dd3033866040518463ffffffff1660e01b815260040162000eec9392919062001faf565b600060405180830381600087803b15801562000f0757600080fd5b505af115801562000f1c573d6000803e3d6000fd5b505050507f7cdb51e9dbbc205231228146c3246e7f914aa6d4a33170e43ecc8e3593481d1a60405162000f4f9062002333565b60405180910390a1505050565b60025481565b60608060008390508073ffffffffffffffffffffffffffffffffffffffff1663227212f26040518163ffffffff1660e01b8152600401600060405180830381865afa15801562000fb6573d6000803e3d6000fd5b505050506040513d6000823e3d601f19601f8201168201806040525081019062000fe19190620024cf565b9250925050915091565b6000818154811062000ffc57600080fd5b90600052602060002090600402016000915090508060000160009054906101000a900473ffffffffffffffffffffffffffffffffffffffff1690806001018054620010479062001a87565b80601f0160208091040260200160405190810160405280929190818152602001828054620010759062001a87565b8015620010c65780601f106200109a57610100808354040283529160200191620010c6565b820191906000526020600020905b815481529060010190602001808311620010a857829003601f168201915b505050505090806002018054620010dd9062001a87565b80601f01602080910402602001604051908101604052809291908181526020018280546200110b9062001a87565b80156200115c5780601f1062001130576101008083540402835291602001916200115c565b820191906000526020600020905b8154815290600101906020018083116200113e57829003601f168201915b5050505050908060030160009054906101000a900473ffffffffffffffffffffffffffffffffffffffff16905084565b612e36806200255583390190565b6000604051905090565b600080fd5b600080fd5b600080fd5b600080fd5b6000601f19601f8301169050919050565b7f4e487b7100000000000000000000000000000000000000000000000000000000600052604160045260246000fd5b6200120382620011b8565b810181811067ffffffffffffffff82111715620012255762001224620011c9565b5b80604052505050565b60006200123a6200119a565b9050620012488282620011f8565b919050565b600067ffffffffffffffff8211156200126b576200126a620011c9565b5b6200127682620011b8565b9050602081019050919050565b82818337600083830152505050565b6000620012a9620012a3846200124d565b6200122e565b905082815260208101848484011115620012c857620012c7620011b3565b5b620012d584828562001283565b509392505050565b600082601f830112620012f557620012f4620011ae565b5b81356200130784826020860162001292565b91505092915050565b600080604083850312156200132a5762001329620011a4565b5b600083013567ffffffffffffffff8111156200134b576200134a620011a9565b5b6200135985828601620012dd565b925050602083013567ffffffffffffffff8111156200137d576200137c620011a9565b5b6200138b85828601620012dd565b9150509250929050565b6000819050919050565b620013aa8162001395565b8114620013b657600080fd5b50565b600081359050620013ca816200139f565b92915050565b600060208284031215620013e957620013e8620011a4565b5b6000620013f984828501620013b9565b91505092915050565b6200140d8162001395565b82525050565b600073ffffffffffffffffffffffffffffffffffffffff82169050919050565b6000620014408262001413565b9050919050565b620014528162001433565b82525050565b60008115159050919050565b6200146f8162001458565b82525050565b600060a0820190506200148c600083018862001402565b6200149b602083018762001447565b620014aa604083018662001447565b620014b9606083018562001402565b620014c8608083018462001464565b9695505050505050565b600081519050919050565b600082825260208201905092915050565b6000819050602082019050919050565b620015098162001433565b82525050565b600081519050919050565b600082825260208201905092915050565b60005b838110156200154b5780820151818401526020810190506200152e565b60008484015250505050565b600062001564826200150f565b6200157081856200151a565b9350620015828185602086016200152b565b6200158d81620011b8565b840191505092915050565b6000608083016000830151620015b26000860182620014fe565b5060208301518482036020860152620015cc828262001557565b91505060408301518482036040860152620015e8828262001557565b9150506060830151620015ff6060860182620014fe565b508091505092915050565b600062001618838362001598565b905092915050565b6000602082019050919050565b60006200163a82620014d2565b620016468185620014dd565b9350836020820285016200165a85620014ee565b8060005b858110156200169c57848403895281516200167a85826200160a565b9450620016878362001620565b925060208a019950506001810190506200165e565b50829750879550505050505092915050565b60006020820190508181036000830152620016ca81846200162d565b905092915050565b620016dd8162001433565b8114620016e957600080fd5b50565b600081359050620016fd81620016d2565b92915050565b6000806000606084860312156200171f576200171e620011a4565b5b60006200172f86828701620013b9565b93505060206200174286828701620016ec565b92505060406200175586828701620013b9565b9150509250925092565b600060208284031215620017785762001777620011a4565b5b60006200178884828501620016ec565b91505092915050565b6000602082019050620017a8600083018462001464565b92915050565b600080600060608486031215620017ca57620017c9620011a4565b5b6000620017da86828701620016ec565b935050602084013567ffffffffffffffff811115620017fe57620017fd620011a9565b5b6200180c86828701620012dd565b925050604084013567ffffffffffffffff81111562001830576200182f620011a9565b5b6200183e86828701620012dd565b9150509250925092565b60006020820190506200185f600083018462001402565b92915050565b600081519050919050565b600082825260208201905092915050565b6000819050602082019050919050565b60006200189f838362001557565b905092915050565b6000602082019050919050565b6000620018c18262001865565b620018cd818562001870565b935083602082028501620018e18562001881565b8060005b8581101562001923578484038952815162001901858262001891565b94506200190e83620018a7565b925060208a01995050600181019050620018e5565b50829750879550505050505092915050565b60006040820190508181036000830152620019518185620018b4565b90508181036020830152620019678184620018b4565b90509392505050565b600082825260208201905092915050565b60006200198e826200150f565b6200199a818562001970565b9350620019ac8185602086016200152b565b620019b781620011b8565b840191505092915050565b6000608082019050620019d9600083018762001447565b8181036020830152620019ed818662001981565b9050818103604083015262001a03818562001981565b905062001a14606083018462001447565b95945050505050565b6000604082019050818103600083015262001a39818562001981565b9050818103602083015262001a4f818462001981565b90509392505050565b7f4e487b7100000000000000000000000000000000000000000000000000000000600052602260045260246000fd5b6000600282049050600182168062001aa057607f821691505b60208210810362001ab65762001ab562001a58565b5b50919050565b60008190508160005260206000209050919050565b60006020601f8301049050919050565b600082821b905092915050565b60006008830262001b207fffffffffffffffffffffffffffffffffffffffffffffffffffffffffffffffff8262001ae1565b62001b2c868362001ae1565b95508019841693508086168417925050509392505050565b6000819050919050565b600062001b6f62001b6962001b638462001395565b62001b44565b62001395565b9050919050565b6000819050919050565b62001b8b8362001b4e565b62001ba362001b9a8262001b76565b84845462001aee565b825550505050565b600090565b62001bba62001bab565b62001bc781848462001b80565b505050565b5b8181101562001bef5762001be360008262001bb0565b60018101905062001bcd565b5050565b601f82111562001c3e5762001c088162001abc565b62001c138462001ad1565b8101602085101562001c23578190505b62001c3b62001c328562001ad1565b83018262001bcc565b50505b505050565b600082821c905092915050565b600062001c636000198460080262001c43565b1980831691505092915050565b600062001c7e838362001c50565b9150826002028217905092915050565b62001c99826200150f565b67ffffffffffffffff81111562001cb55762001cb4620011c9565b5b62001cc1825462001a87565b62001cce82828562001bf3565b600060209050601f83116001811462001d06576000841562001cf1578287015190505b62001cfd858262001c70565b86555062001d6d565b601f19841662001d168662001abc565b60005b8281101562001d405784890151825560018201915060208501945060208101905062001d19565b8683101562001d60578489015162001d5c601f89168262001c50565b8355505b6001600288020188555050505b505050505050565b600060608201905062001d8c600083018662001447565b818103602083015262001da0818562001981565b9050818103604083015262001db6818462001981565b9050949350505050565b7f446562757420646520666f6e6374696f6e000000000000000000000000000000600082015250565b600062001df860118362001970565b915062001e058262001dc0565b602082019050919050565b6000602082019050818103600083015262001e2b8162001de9565b9050919050565b7f44656a61206c6973746500000000000000000000000000000000000000000000600082015250565b600062001e6a600a8362001970565b915062001e778262001e32565b602082019050919050565b6000602082019050818103600083015262001e9d8162001e5b565b9050919050565b600060208201905062001ebb600083018462001447565b92915050565b7f50616c6973746500000000000000000000000000000000000000000000000000600082015250565b600062001ef960078362001970565b915062001f068262001ec1565b602082019050919050565b6000602082019050818103600083015262001f2c8162001eea565b9050919050565b7f4e487b7100000000000000000000000000000000000000000000000000000000600052601160045260246000fd5b600062001f6f8262001395565b91507fffffffffffffffffffffffffffffffffffffffffffffffffffffffffffffffff820362001fa45762001fa362001f33565b5b600182019050919050565b600060608201905062001fc6600083018662001447565b62001fd5602083018562001447565b62001fe4604083018462001402565b949350505050565b7f4e487b7100000000000000000000000000000000000000000000000000000000600052603260045260246000fd5b7f436f6c6c656374696f6e206e6f7420666f756e64206f72206e6f74206f776e6560008201527f642062792073656e646572000000000000000000000000000000000000000000602082015250565b600062002079602b8362001970565b915062002086826200201b565b604082019050919050565b60006020820190508181036000830152620020ac816200206a565b9050919050565b600081519050620020c4816200139f565b92915050565b600060208284031215620020e357620020e2620011a4565b5b6000620020f384828501620020b3565b91505092915050565b600060a08201905062002113600083018862001447565b62002122602083018762001402565b818103604083015262002136818662001981565b905081810360608301526200214c818562001981565b90506200215d608083018462001447565b9695505050505050565b7f496e76616c6964206d61726b6574204944000000000000000000000000000000600082015250565b60006200219f60118362001970565b9150620021ac8262002167565b602082019050919050565b60006020820190508181036000830152620021d28162002190565b9050919050565b7f4e465420616c726561647920736f6c6400000000000000000000000000000000600082015250565b60006200221160108362001970565b91506200221e82620021d9565b602082019050919050565b60006020820190508181036000830152620022448162002202565b9050919050565b7f496e73756666696369656e742066756e647320746f207075726368617365204e60008201527f4654000000000000000000000000000000000000000000000000000000000000602082015250565b6000620022a960228362001970565b9150620022b6826200224b565b604082019050919050565b60006020820190508181036000830152620022dc816200229a565b9050919050565b7f4e465420707572636861736564207375636365737366756c6c79000000000000600082015250565b60006200231b601a8362001970565b91506200232882620022e3565b602082019050919050565b600060208201905081810360008301526200234e816200230c565b9050919050565b600067ffffffffffffffff821115620023735762002372620011c9565b5b602082029050602081019050919050565b600080fd5b6000620023a06200239a846200124d565b6200122e565b905082815260208101848484011115620023bf57620023be620011b3565b5b620023cc8482856200152b565b509392505050565b600082601f830112620023ec57620023eb620011ae565b5b8151620023fe84826020860162002389565b91505092915050565b60006200241e620024188462002355565b6200122e565b9050808382526020820190506020840283018581111562002444576200244362002384565b5b835b818110156200249257805167ffffffffffffffff8111156200246d576200246c620011ae565b5b8086016200247c8982620023d4565b8552602085019450505060208101905062002446565b5050509392505050565b600082601f830112620024b457620024b3620011ae565b5b8151620024c684826020860162002407565b91505092915050565b60008060408385031215620024e957620024e8620011a4565b5b600083015167ffffffffffffffff8111156200250a5762002509620011a9565b5b62002518858286016200249c565b925050602083015167ffffffffffffffff8111156200253c576200253b620011a9565b5b6200254a858286016200249c565b915050925092905056fe60806040523480156200001157600080fd5b5060405162002e3638038062002e368339818101604052810190620000379190620001fa565b818181600090816200004a9190620004ca565b5080600190816200005c9190620004ca565b5050505050620005b1565b6000604051905090565b600080fd5b600080fd5b600080fd5b600080fd5b6000601f19601f8301169050919050565b7f4e487b7100000000000000000000000000000000000000000000000000000000600052604160045260246000fd5b620000d08262000085565b810181811067ffffffffffffffff82111715620000f257620000f162000096565b5b80604052505050565b60006200010762000067565b9050620001158282620000c5565b919050565b600067ffffffffffffffff82111562000138576200013762000096565b5b620001438262000085565b9050602081019050919050565b60005b838110156200017057808201518184015260208101905062000153565b60008484015250505050565b6000620001936200018d846200011a565b620000fb565b905082815260208101848484011115620001b257620001b162000080565b5b620001bf84828562000150565b509392505050565b600082601f830112620001df57620001de6200007b565b5b8151620001f18482602086016200017c565b91505092915050565b6000806040838503121562000214576200021362000071565b5b600083015167ffffffffffffffff81111562000235576200023462000076565b5b6200024385828601620001c7565b925050602083015167ffffffffffffffff81111562000267576200026662000076565b5b6200027585828601620001c7565b9150509250929050565b600081519050919050565b7f4e487b7100000000000000000000000000000000000000000000000000000000600052602260045260246000fd5b60006002820490506001821680620002d257607f821691505b602082108103620002e857620002e76200028a565b5b50919050565b60008190508160005260206000209050919050565b60006020601f8301049050919050565b600082821b905092915050565b600060088302620003527fffffffffffffffffffffffffffffffffffffffffffffffffffffffffffffffff8262000313565b6200035e868362000313565b95508019841693508086168417925050509392505050565b6000819050919050565b6000819050919050565b6000620003ab620003a56200039f8462000376565b62000380565b62000376565b9050919050565b6000819050919050565b620003c7836200038a565b620003df620003d682620003b2565b84845462000320565b825550505050565b600090565b620003f6620003e7565b62000403818484620003bc565b505050565b5b818110156200042b576200041f600082620003ec565b60018101905062000409565b5050565b601f8211156200047a576200044481620002ee565b6200044f8462000303565b810160208510156200045f578190505b620004776200046e8562000303565b83018262000408565b50505b505050565b600082821c905092915050565b60006200049f600019846008026200047f565b1980831691505092915050565b6000620004ba83836200048c565b9150826002028217905092915050565b620004d5826200027f565b67ffffffffffffffff811115620004f157620004f062000096565b5b620004fd8254620002b9565b6200050a8282856200042f565b600060209050601f8311600181146200054257600084156200052d578287015190505b620005398582620004ac565b865550620005a9565b601f1984166200055286620002ee565b60005b828110156200057c5784890151825560018201915060208501945060208101905062000555565b868310156200059c578489015162000598601f8916826200048c565b8355505b6001600288020188555050505b505050505050565b61287580620005c16000396000f3fe608060405234801561001057600080fd5b50600436106101005760003560e01c80636352211e11610097578063a22cb46511610066578063a22cb465146102d6578063b88d4fde146102f2578063c87b56dd1461030e578063e985e9c51461033e57610100565b80636352211e1461022857806370a082311461025857806395d89b411461028857806399071190146102a657610100565b8063227212f2116100d3578063227212f21461019f57806323b872dd146101be578063265aa621146101da57806342842e0e1461020c57610100565b806301ffc9a71461010557806306fdde0314610135578063081812fc14610153578063095ea7b314610183575b600080fd5b61011f600480360381019061011a9190611b19565b61036e565b60405161012c9190611b61565b60405180910390f35b61013d610450565b60405161014a9190611c0c565b60405180910390f35b61016d60048036038101906101689190611c64565b6104e2565b60405161017a9190611cd2565b60405180910390f35b61019d60048036038101906101989190611d19565b6104fe565b005b6101a761050c565b6040516101b5929190611e65565b60405180910390f35b6101d860048036038101906101d39190611e9c565b610773565b005b6101f460048036038101906101ef9190611c64565b610783565b60405161020393929190611efe565b60405180910390f35b61022660048036038101906102219190611e9c565b6108cd565b005b610242600480360381019061023d9190611c64565b6108ed565b60405161024f9190611cd2565b60405180910390f35b610272600480360381019061026d9190611f43565b6108ff565b60405161027f9190611f70565b60405180910390f35b6102906109b9565b60405161029d9190611c0c565b60405180910390f35b6102c060048036038101906102bb91906120c0565b610a4b565b6040516102cd9190611f70565b60405180910390f35b6102f060048036038101906102eb9190612177565b610b24565b005b61030c60048036038101906103079190612258565b610b3a565b005b61032860048036038101906103239190611c64565b610b57565b6040516103359190611c0c565b60405180910390f35b610358600480360381019061035391906122db565b610bc0565b6040516103659190611b61565b60405180910390f35b60007f80ac58cd000000000000000000000000000000000000000000000000000000007bffffffffffffffffffffffffffffffffffffffffffffffffffffffff1916827bffffffffffffffffffffffffffffffffffffffffffffffffffffffff1916148061043957507f5b5e139f000000000000000000000000000000000000000000000000000000007bffffffffffffffffffffffffffffffffffffffffffffffffffffffff1916827bffffffffffffffffffffffffffffffffffffffffffffffffffffffff1916145b80610449575061044882610c54565b5b9050919050565b60606000805461045f9061234a565b80601f016020809104026020016040519081016040528092919081815260200182805461048b9061234a565b80156104d85780601f106104ad576101008083540402835291602001916104d8565b820191906000526020600020905b8154815290600101906020018083116104bb57829003601f168201915b5050505050905090565b60006104ed82610cbe565b506104f782610d46565b9050919050565b6105088282610d83565b5050565b60608060068054905067ffffffffffffffff81111561052e5761052d611f95565b5b60405190808252806020026020018201604052801561056157816020015b606081526020019060019003908161054c5790505b50915060068054905067ffffffffffffffff81111561058357610582611f95565b5b6040519080825280602002602001820160405280156105b657816020015b60608152602001906001900390816105a15790505b50905060005b60068054905081101561076e57600681815481106105dd576105dc61237b565b5b906000526020600020906003020160000180546105f99061234a565b80601f01602080910402602001604051908101604052809291908181526020018280546106259061234a565b80156106725780601f1061064757610100808354040283529160200191610672565b820191906000526020600020905b81548152906001019060200180831161065557829003601f168201915b505050505083828151811061068a5761068961237b565b5b6020026020010181905250600681815481106106a9576106a861237b565b5b906000526020600020906003020160010180546106c59061234a565b80601f01602080910402602001604051908101604052809291908181526020018280546106f19061234a565b801561073e5780601f106107135761010080835404028352916020019161073e565b820191906000526020600020905b81548152906001019060200180831161072157829003601f168201915b50505050508282815181106107565761075561237b565b5b602002602001018190525080806001019150506105bc565b509091565b61077e838383610d99565b505050565b6006818154811061079357600080fd5b90600052602060002090600302016000915090508060000180546107b69061234a565b80601f01602080910402602001604051908101604052809291908181526020018280546107e29061234a565b801561082f5780601f106108045761010080835404028352916020019161082f565b820191906000526020600020905b81548152906001019060200180831161081257829003601f168201915b5050505050908060010180546108449061234a565b80601f01602080910402602001604051908101604052809291908181526020018280546108709061234a565b80156108bd5780601f10610892576101008083540402835291602001916108bd565b820191906000526020600020905b8154815290600101906020018083116108a057829003601f168201915b5050505050908060020154905083565b6108e883838360405180602001604052806000815250610b3a565b505050565b60006108f882610cbe565b9050919050565b60008073ffffffffffffffffffffffffffffffffffffffff168273ffffffffffffffffffffffffffffffffffffffff16036109725760006040517f89c62b640000000000000000000000000000000000000000000000000000000081526004016109699190611cd2565b60405180910390fd5b600360008373ffffffffffffffffffffffffffffffffffffffff1673ffffffffffffffffffffffffffffffffffffffff168152602001908152602001600020549050919050565b6060600180546109c89061234a565b80601f01602080910402602001604051908101604052809291908181526020018280546109f49061234a565b8015610a415780601f10610a1657610100808354040283529160200191610a41565b820191906000526020600020905b815481529060010190602001808311610a2457829003601f168201915b5050505050905090565b6000806006805490509050610a608582610e9b565b600660405180606001604052808681526020018581526020018381525090806001815401808255809150506001900390600052602060002090600302016000909190919091506000820151816000019081610abb9190612556565b506020820151816001019081610ad19190612556565b506040820151816002015550507ff8b9852ac2523ccf8d5fe9f2da717a856be1fc953e11a26d05c9ebfb88f6b990818585604051610b1193929190612628565b60405180910390a1809150509392505050565b610b36610b2f610f94565b8383610f9c565b5050565b610b45848484610773565b610b518484848461110b565b50505050565b6060610b6282610cbe565b506000610b6d6112c2565b90506000815111610b8d5760405180602001604052806000815250610bb8565b80610b97846112d9565b604051602001610ba89291906126a9565b6040516020818303038152906040525b915050919050565b6000600560008473ffffffffffffffffffffffffffffffffffffffff1673ffffffffffffffffffffffffffffffffffffffff16815260200190815260200160002060008373ffffffffffffffffffffffffffffffffffffffff1673ffffffffffffffffffffffffffffffffffffffff16815260200190815260200160002060009054906101000a900460ff16905092915050565b60007f01ffc9a7000000000000000000000000000000000000000000000000000000007bffffffffffffffffffffffffffffffffffffffffffffffffffffffff1916827bffffffffffffffffffffffffffffffffffffffffffffffffffffffff1916149050919050565b600080610cca836113a7565b9050600073ffffffffffffffffffffffffffffffffffffffff168173ffffffffffffffffffffffffffffffffffffffff1603610d3d57826040517f7e273289000000000000000000000000000000000000000000000000000000008152600401610d349190611f70565b60405180910390fd5b80915050919050565b60006004600083815260200190815260200160002060009054906101000a900473ffffffffffffffffffffffffffffffffffffffff169050919050565b610d958282610d90610f94565b6113e4565b5050565b600073ffffffffffffffffffffffffffffffffffffffff168273ffffffffffffffffffffffffffffffffffffffff1603610e0b5760006040517f64a0ae92000000000000000000000000000000000000000000000000000000008152600401610e029190611cd2565b60405180910390fd5b6000610e1f8383610e1a610f94565b6113f6565b90508373ffffffffffffffffffffffffffffffffffffffff168173ffffffffffffffffffffffffffffffffffffffff1614610e95578382826040517f64283d7b000000000000000000000000000000000000000000000000000000008152600401610e8c939291906126cd565b60405180910390fd5b50505050565b600073ffffffffffffffffffffffffffffffffffffffff168273ffffffffffffffffffffffffffffffffffffffff1603610f0d5760006040517f64a0ae92000000000000000000000000000000000000000000000000000000008152600401610f049190611cd2565b60405180910390fd5b6000610f1b838360006113f6565b9050600073ffffffffffffffffffffffffffffffffffffffff168173ffffffffffffffffffffffffffffffffffffffff1614610f8f5760006040517f73c6ac6e000000000000000000000000000000000000000000000000000000008152600401610f869190611cd2565b60405180910390fd5b505050565b600033905090565b600073ffffffffffffffffffffffffffffffffffffffff168273ffffffffffffffffffffffffffffffffffffffff160361100d57816040517f5b08ba180000000000000000000000000000000000000000000000000000000081526004016110049190611cd2565b60405180910390fd5b80600560008573ffffffffffffffffffffffffffffffffffffffff1673ffffffffffffffffffffffffffffffffffffffff16815260200190815260200160002060008473ffffffffffffffffffffffffffffffffffffffff1673ffffffffffffffffffffffffffffffffffffffff16815260200190815260200160002060006101000a81548160ff0219169083151502179055508173ffffffffffffffffffffffffffffffffffffffff168373ffffffffffffffffffffffffffffffffffffffff167f17307eab39ab6107e8899845ad3d59bd9653f200f220920489ca2b5937696c31836040516110fe9190611b61565b60405180910390a3505050565b60008373ffffffffffffffffffffffffffffffffffffffff163b11156112bc578273ffffffffffffffffffffffffffffffffffffffff1663150b7a0261114f610f94565b8685856040518563ffffffff1660e01b81526004016111719493929190612759565b6020604051808303816000875af19250505080156111ad57506040513d601f19601f820116820180604052508101906111aa91906127ba565b60015b611231573d80600081146111dd576040519150601f19603f3d011682016040523d82523d6000602084013e6111e2565b606091505b50600081510361122957836040517f64a0ae920000000000000000000000000000000000000000000000000000000081526004016112209190611cd2565b60405180910390fd5b805181602001fd5b63150b7a0260e01b7bffffffffffffffffffffffffffffffffffffffffffffffffffffffff1916817bffffffffffffffffffffffffffffffffffffffffffffffffffffffff1916146112ba57836040517f64a0ae920000000000000000000000000000000000000000000000000000000081526004016112b19190611cd2565b60405180910390fd5b505b50505050565b606060405180602001604052806000815250905090565b6060600060016112e884611610565b01905060008167ffffffffffffffff81111561130757611306611f95565b5b6040519080825280601f01601f1916602001820160405280156113395781602001600182028036833780820191505090505b509050600082602001820190505b60011561139c578080600190039150507f3031323334353637383961626364656600000000000000000000000000000000600a86061a8153600a85816113905761138f6127e7565b5b04945060008503611347575b819350505050919050565b60006002600083815260200190815260200160002060009054906101000a900473ffffffffffffffffffffffffffffffffffffffff169050919050565b6113f18383836001611763565b505050565b600080611402846113a7565b9050600073ffffffffffffffffffffffffffffffffffffffff168373ffffffffffffffffffffffffffffffffffffffff161461144457611443818486611928565b5b600073ffffffffffffffffffffffffffffffffffffffff168173ffffffffffffffffffffffffffffffffffffffff16146114d557611486600085600080611763565b6001600360008373ffffffffffffffffffffffffffffffffffffffff1673ffffffffffffffffffffffffffffffffffffffff168152602001908152602001600020600082825403925050819055505b600073ffffffffffffffffffffffffffffffffffffffff168573ffffffffffffffffffffffffffffffffffffffff1614611558576001600360008773ffffffffffffffffffffffffffffffffffffffff1673ffffffffffffffffffffffffffffffffffffffff168152602001908152602001600020600082825401925050819055505b846002600086815260200190815260200160002060006101000a81548173ffffffffffffffffffffffffffffffffffffffff021916908373ffffffffffffffffffffffffffffffffffffffff160217905550838573ffffffffffffffffffffffffffffffffffffffff168273ffffffffffffffffffffffffffffffffffffffff167fddf252ad1be2c89b69c2b068fc378daa952ba7f163c4a11628f55a4df523b3ef60405160405180910390a4809150509392505050565b600080600090507a184f03e93ff9f4daa797ed6e38ed64bf6a1f010000000000000000831061166e577a184f03e93ff9f4daa797ed6e38ed64bf6a1f0100000000000000008381611664576116636127e7565b5b0492506040810190505b6d04ee2d6d415b85acef810000000083106116ab576d04ee2d6d415b85acef810000000083816116a1576116a06127e7565b5b0492506020810190505b662386f26fc1000083106116da57662386f26fc1000083816116d0576116cf6127e7565b5b0492506010810190505b6305f5e1008310611703576305f5e10083816116f9576116f86127e7565b5b0492506008810190505b612710831061172857612710838161171e5761171d6127e7565b5b0492506004810190505b6064831061174b5760648381611741576117406127e7565b5b0492506002810190505b600a831061175a576001810190505b80915050919050565b808061179c5750600073ffffffffffffffffffffffffffffffffffffffff168273ffffffffffffffffffffffffffffffffffffffff1614155b156118d05760006117ac84610cbe565b9050600073ffffffffffffffffffffffffffffffffffffffff168373ffffffffffffffffffffffffffffffffffffffff161415801561181757508273ffffffffffffffffffffffffffffffffffffffff168173ffffffffffffffffffffffffffffffffffffffff1614155b801561182a57506118288184610bc0565b155b1561186c57826040517fa9fbf51f0000000000000000000000000000000000000000000000000000000081526004016118639190611cd2565b60405180910390fd5b81156118ce57838573ffffffffffffffffffffffffffffffffffffffff168273ffffffffffffffffffffffffffffffffffffffff167f8c5be1e5ebec7d5bd14f71427d1e84f3dd0314c0f7b2291e5b200ac8c7c3b92560405160405180910390a45b505b836004600085815260200190815260200160002060006101000a81548173ffffffffffffffffffffffffffffffffffffffff021916908373ffffffffffffffffffffffffffffffffffffffff16021790555050505050565b6119338383836119ec565b6119e757600073ffffffffffffffffffffffffffffffffffffffff168373ffffffffffffffffffffffffffffffffffffffff16036119a857806040517f7e27328900000000000000000000000000000000000000000000000000000000815260040161199f9190611f70565b60405180910390fd5b81816040517f177e802f0000000000000000000000000000000000000000000000000000000081526004016119de929190612816565b60405180910390fd5b505050565b60008073ffffffffffffffffffffffffffffffffffffffff168373ffffffffffffffffffffffffffffffffffffffff1614158015611aa457508273ffffffffffffffffffffffffffffffffffffffff168473ffffffffffffffffffffffffffffffffffffffff161480611a655750611a648484610bc0565b5b80611aa357508273ffffffffffffffffffffffffffffffffffffffff16611a8b83610d46565b73ffffffffffffffffffffffffffffffffffffffff16145b5b90509392505050565b6000604051905090565b600080fd5b600080fd5b60007fffffffff0000000000000000000000000000000000000000000000000000000082169050919050565b611af681611ac1565b8114611b0157600080fd5b50565b600081359050611b1381611aed565b92915050565b600060208284031215611b2f57611b2e611ab7565b5b6000611b3d84828501611b04565b91505092915050565b60008115159050919050565b611b5b81611b46565b82525050565b6000602082019050611b766000830184611b52565b92915050565b600081519050919050565b600082825260208201905092915050565b60005b83811015611bb6578082015181840152602081019050611b9b565b60008484015250505050565b6000601f19601f8301169050919050565b6000611bde82611b7c565b611be88185611b87565b9350611bf8818560208601611b98565b611c0181611bc2565b840191505092915050565b60006020820190508181036000830152611c268184611bd3565b905092915050565b6000819050919050565b611c4181611c2e565b8114611c4c57600080fd5b50565b600081359050611c5e81611c38565b92915050565b600060208284031215611c7a57611c79611ab7565b5b6000611c8884828501611c4f565b91505092915050565b600073ffffffffffffffffffffffffffffffffffffffff82169050919050565b6000611cbc82611c91565b9050919050565b611ccc81611cb1565b82525050565b6000602082019050611ce76000830184611cc3565b92915050565b611cf681611cb1565b8114611d0157600080fd5b50565b600081359050611d1381611ced565b92915050565b60008060408385031215611d3057611d2f611ab7565b5b6000611d3e85828601611d04565b9250506020611d4f85828601611c4f565b9150509250929050565b600081519050919050565b600082825260208201905092915050565b6000819050602082019050919050565b600082825260208201905092915050565b6000611da182611b7c565b611dab8185611d85565b9350611dbb818560208601611b98565b611dc481611bc2565b840191505092915050565b6000611ddb8383611d96565b905092915050565b6000602082019050919050565b6000611dfb82611d59565b611e058185611d64565b935083602082028501611e1785611d75565b8060005b85811015611e535784840389528151611e348582611dcf565b9450611e3f83611de3565b925060208a01995050600181019050611e1b565b50829750879550505050505092915050565b60006040820190508181036000830152611e7f8185611df0565b90508181036020830152611e938184611df0565b90509392505050565b600080600060608486031215611eb557611eb4611ab7565b5b6000611ec386828701611d04565b9350506020611ed486828701611d04565b9250506040611ee586828701611c4f565b9150509250925092565b611ef881611c2e565b82525050565b60006060820190508181036000830152611f188186611bd3565b90508181036020830152611f2c8185611bd3565b9050611f3b6040830184611eef565b949350505050565b600060208284031215611f5957611f58611ab7565b5b6000611f6784828501611d04565b91505092915050565b6000602082019050611f856000830184611eef565b92915050565b600080fd5b600080fd5b7f4e487b7100000000000000000000000000000000000000000000000000000000600052604160045260246000fd5b611fcd82611bc2565b810181811067ffffffffffffffff82111715611fec57611feb611f95565b5b80604052505050565b6000611fff611aad565b905061200b8282611fc4565b919050565b600067ffffffffffffffff82111561202b5761202a611f95565b5b61203482611bc2565b9050602081019050919050565b82818337600083830152505050565b600061206361205e84612010565b611ff5565b90508281526020810184848401111561207f5761207e611f90565b5b61208a848285612041565b509392505050565b600082601f8301126120a7576120a6611f8b565b5b81356120b7848260208601612050565b91505092915050565b6000806000606084860312156120d9576120d8611ab7565b5b60006120e786828701611d04565b935050602084013567ffffffffffffffff81111561210857612107611abc565b5b61211486828701612092565b925050604084013567ffffffffffffffff81111561213557612134611abc565b5b61214186828701612092565b9150509250925092565b61215481611b46565b811461215f57600080fd5b50565b6000813590506121718161214b565b92915050565b6000806040838503121561218e5761218d611ab7565b5b600061219c85828601611d04565b92505060206121ad85828601612162565b9150509250929050565b600067ffffffffffffffff8211156121d2576121d1611f95565b5b6121db82611bc2565b9050602081019050919050565b60006121fb6121f6846121b7565b611ff5565b90508281526020810184848401111561221757612216611f90565b5b612222848285612041565b509392505050565b600082601f83011261223f5761223e611f8b565b5b813561224f8482602086016121e8565b91505092915050565b6000806000806080858703121561227257612271611ab7565b5b600061228087828801611d04565b945050602061229187828801611d04565b93505060406122a287828801611c4f565b925050606085013567ffffffffffffffff8111156122c3576122c2611abc565b5b6122cf8782880161222a565b91505092959194509250565b600080604083850312156122f2576122f1611ab7565b5b600061230085828601611d04565b925050602061231185828601611d04565b9150509250929050565b7f4e487b7100000000000000000000000000000000000000000000000000000000600052602260045260246000fd5b6000600282049050600182168061236257607f821691505b6020821081036123755761237461231b565b5b50919050565b7f4e487b7100000000000000000000000000000000000000000000000000000000600052603260045260246000fd5b60008190508160005260206000209050919050565b60006020601f8301049050919050565b600082821b905092915050565b60006008830261240c7fffffffffffffffffffffffffffffffffffffffffffffffffffffffffffffffff826123cf565b61241686836123cf565b95508019841693508086168417925050509392505050565b6000819050919050565b600061245361244e61244984611c2e565b61242e565b611c2e565b9050919050565b6000819050919050565b61246d83612438565b6124816124798261245a565b8484546123dc565b825550505050565b600090565b612496612489565b6124a1818484612464565b505050565b5b818110156124c5576124ba60008261248e565b6001810190506124a7565b5050565b601f82111561250a576124db816123aa565b6124e4846123bf565b810160208510156124f3578190505b6125076124ff856123bf565b8301826124a6565b50505b505050565b600082821c905092915050565b600061252d6000198460080261250f565b1980831691505092915050565b6000612546838361251c565b9150826002028217905092915050565b61255f82611b7c565b67ffffffffffffffff81111561257857612577611f95565b5b612582825461234a565b61258d8282856124c9565b600060209050601f8311600181146125c057600084156125ae578287015190505b6125b8858261253a565b865550612620565b601f1984166125ce866123aa565b60005b828110156125f6578489015182556001820191506020850194506020810190506125d1565b86831015612613578489015161260f601f89168261251c565b8355505b6001600288020188555050505b505050505050565b600060608201905061263d6000830186611eef565b818103602083015261264f8185611bd3565b905081810360408301526126638184611bd3565b9050949350505050565b600081905092915050565b600061268382611b7c565b61268d818561266d565b935061269d818560208601611b98565b80840191505092915050565b60006126b58285612678565b91506126c18284612678565b91508190509392505050565b60006060820190506126e26000830186611cc3565b6126ef6020830185611eef565b6126fc6040830184611cc3565b949350505050565b600081519050919050565b600082825260208201905092915050565b600061272b82612704565b612735818561270f565b9350612745818560208601611b98565b61274e81611bc2565b840191505092915050565b600060808201905061276e6000830187611cc3565b61277b6020830186611cc3565b6127886040830185611eef565b818103606083015261279a8184612720565b905095945050505050565b6000815190506127b481611aed565b92915050565b6000602082840312156127d0576127cf611ab7565b5b60006127de848285016127a5565b91505092915050565b7f4e487b7100000000000000000000000000000000000000000000000000000000600052601260045260246000fd5b600060408201905061282b6000830185611cc3565b6128386020830184611eef565b939250505056fea2646970667358221220d98efe0ce2cec8e3f508da7e0784f0c442af6f9aabc252da3365cc4075d0375164736f6c63430008180033a264697066735822122093a705dc5515878d80cc1b85f85d204847f13a060df18b70e52b4bf3109789ab64736f6c63430008180033",
  "linkReferences": {},
  "deployedLinkReferences": {}
}